:020000040800F2
:1000000000280020E91E0008911D0008991D000825
:10001000A11D0008A91D0008B11D00080000000076
:10002000000000000000000000000000B91D0008F2
:10003000C51D000800000000D11D0008DD1D0008DE
:10004000311F0008311F0008311F0008311F000850
:10005000311F0008311F0008311F0008311F000840
:10006000311F0008311F0008311F0008311F000830
:10007000311F0008311F0008311F0008311F000820
:10008000311F0008311F0008311F0008311F000810
:10009000311F0008311F0008311F0008311F000800
:1000A000311F0008311F0008311F0008311F0008F0
:1000B000E91D0008311F000800000000311F000882
:1000C000311F00080000000000000000311F000880
:1000D00000000000311F0008311F00080000000070
:1000E000311F0008311F0008311F00080000000008
:1000F0000000000000000000000000000000000000
:0C01000000000000000000005FF808F1A3
:10010C0010B5054C237833B9044B13B10448AFF345
:10011C0000800123237010BDA0000020000000000F
:10012C006835000808B5034B1BB103490348AFF30E
:10013C00008008BD00000000A40000206835000805
:10014C0080B400AF074B00221A60064B00225A60A5
:10015C00044B00229A60034B0022DA6000BFBD46BC
:10016C0080BC7047C400002080B500AF00224FF463
:10017C0080710B4802F0DBF900224FF40071084843
:10018C0002F0D5F900224FF48061054802F0CFF956
:10019C0000224FF40061024802F0C9F900BF80BD93
:1001AC000008014080B500AF1B4B1B681B4A52F87E
:1001BC002330002B21D1184B1B68012B03D1184B7A
:1001CC001B68002B0ED1144B1B68032B03D1144B53
:1001DC009B68002B06D1104B1B68114A52F8233038
:1001EC00002B0AD00C4B1A680B4B1B680C4951F8AE
:1001FC0023301946104600F06BF8074B1B6801338F
:10020C00054A1360044B1B68032B02DD024B0022D2
:10021C001A6000BF80BD00BFC0000020C4000020D9
:10022C006C00002080B400AF254B1B68254A82FB74
:10023C0003129210DB17D11A224B83FB01239A1065
:10024C00CB17D21A13469B0013445B00CA1A1E4BE1
:10025C001A601B4B19681B4B83FB01239A10CB179D
:10026C00D21A13469B0013445B00CA1A164B5A60F1
:10027C00164B1B68134A82FB03129210DB17D11A20
:10028C00104B83FB01239A10CB17D21A13469B00F9
:10029C0013445B00CA1A0C4B9A600C4B1968094B3F
:1002AC0083FB01239A10CB17D21A13469B001344DD
:1002BC005B00CA1A044BDA6000BFBD4680BC7047B5
:1002CC00D4000020676666666C000020D800002011
:1002DC0080B582B000AF78603960FFF745FF3868B1
:1002EC0000F008F8786800F0F1F900BF0837BD4657
:1002FC0080BD000080B582B000AF78607B68092BB0
:10030C0000F2B48101A252F823F000BF41030008AF
:10031C0093030008E503000837040008890400086B
:10032C00DB0400082D0500087F050008D105000836
:10033C002306000800220121CB4802F0F8F8002225
:10034C000221C94802F0F3F800220421C64802F049
:10035C00EEF800220821C44802F0E9F8002210212E
:10036C00C14802F0E4F800222021BF4802F0DFF877
:10037C0001224021BC4802F0DAF801228021BA485F
:10038C0002F0D5F89BE101220121B74802F0CFF829
:10039C0000220221B44802F0CAF800220421B2481B
:1003AC0002F0C5F801220821AF4802F0C0F8012282
:1003BC001021AD4802F0BBF801222021AA4802F01E
:1003CC00B6F801224021A84802F0B1F801228021A0
:1003DC00A54802F0ACF872E100220121A24802F01B
:1003EC00A6F800220221A04802F0A1F80122042163
:1003FC009D4802F09CF8002208219B4802F097F8D7
:10040C0000221021984802F092F8012220219648EF
:10041C0002F08DF800224021934802F088F8012266
:10042C008021914802F083F849E1002201218E4895
:10043C0002F07DF8002202218B4802F078F80022AD
:10044C000421894802F073F800220821864802F042
:10045C006EF801221021844802F069F80122202153
:10046C00814802F064F8002240217F4802F05FF8D6
:10047C00012280217C4802F05AF820E1012201215E
:10048C00794802F054F800220221774802F04FF824
:10049C0000220421744802F04AF801220821724813
:1004AC0002F045F8012210216F4802F040F80022BA
:1004BC0020216D4802F03BF8002240216A4802F0EE
:1004CC0036F801228021684802F031F8F7E000226A
:1004DC000121654802F02BF801220221624802F04A
:1004EC0026F800220421604802F021F8002208219D
:1004FC005D4802F01CF8012210215B4802F017F84D
:10050C0000222021584802F012F8002240215648BF
:10051C0002F00DF801228021534802F008F8CEE0D9
:10052C0000220121504802F002F8012202214E481B
:10053C0001F0FDFF002204214B4801F0F8FF0022DE
:10054C000821494801F0F3FF00221021464801F030
:10055C00EEFF00222021444801F0E9FF0022402157
:10056C00414801F0E4FF012280213F4801F0DFFF08
:10057C00A5E0002201213C4801F0D9FF0022022114
:10058C00394801F0D4FF00220421374801F0CFFF95
:10059C0001220821344801F0CAFF012210213248FF
:1005AC0001F0C5FF012220212F4801F0C0FF0122DC
:1005BC0040212D4801F0BBFF012280212A4801F087
:1005CC00B6FF7CE000220121274801F0B0FF002299
:1005DC000221254801F0ABFF00220421224801F042
:1005EC00A6FF00220821204801F0A1FF00221021C3
:1005FC001D4801F09CFF002220211B4801F097FFB1
:10060C0000224021184801F092FF01228021164857
:10061C0001F08DFF53E000220121134801F087FF08
:10062C0000220221104801F082FF002204210E4812
:10063C0001F07DFF002208210B4801F078FF012218
:10064C001021094801F073FF00222021064801F017
:10065C006EFF00224021044801F069FF0122802135
:10066C00014801F064FF2AE0000801400122012149
:10067C00154801F05CFF01220221134801F057FFDD
:10068C0001220421104801F052FF012208210E48DA
:10069C0001F04DFF012210210B4801F048FF01220F
:1006AC002021094801F043FF01224021064801F0B6
:1006BC003EFF01228021044801F039FF00BF00BF3A
:1006CC000837BD4680BD00BF0008014080B582B030
:1006DC0000AF78607B68032B6ED801A252F823F030
:1006EC00FD0600082F0700086107000893070008A3
:1006FC0001224FF48071334801F019FF00224FF4AE
:10070C000071304801F013FF00224FF480612D4836
:10071C0001F00DFF00224FF400612A4801F007FFA1
:10072C004BE000224FF48071264801F000FF0122BB
:10073C004FF40071234801F0FAFE00224FF480615F
:10074C00204801F0F4FE00224FF400611D4801F036
:10075C00EEFE32E000224FF480711A4801F0E7FE01
:10076C0000224FF40071174801F0E1FE01224FF412
:10077C008061144801F0DBFE00224FF40061114847
:10078C0001F0D5FE19E000224FF480710D4801F004
:10079C00CEFE00224FF400710A4801F0C8FE002280
:1007AC004FF48061074801F0C2FE01224FF4006152
:1007BC00044801F0BCFE00E000BF00BF0837BD4696
:1007CC0080BD00BF0008014080B582B000AF7860EA
:1007DC007B685A687B689A607B681A687B685A6089
:1007EC007B68DA697B681B8C1946104601F088FE21
:1007FC0003461A467B681A607B681A687B685B68DC
:10080C009A422DD17B685A687B689B689A4227D1A3
:10081C007B689A687B68DB689A420ED07B689A6822
:10082C007B68DA607B68DB68002B19D17B68192246
:10083C001A617B6801225A6112E07B681B695A1E9F
:10084C007B681A617B681B69002B09DC7B681922A9
:10085C001A617B68DB68002B02D17B6801229A61EC
:10086C0000BF0837BD4680BD80B483B000AF786050
:10087C007B685B69012B04D17B6800225A610123E0
:10088C0000E0002318460C37BD4680BC704780B48E
:10089C0083B000AF78607B689B69012B04D17B68C7
:1008AC0000229A61012300E0002318460C37BD4654
:1008BC0080BC704780B483B000AF78607B68002246
:1008CC005A617B6800229A6100BF0C37BD4680BC20
:1008DC007047000080B500AFBC4B1B780F2B00F2AB
:1008EC00E98101A252F823F03509000841090008FA
:1008FC00A7090008F50900085B0A0008A90A000806
:10090C00DF0A0008FD0A0008330B0008510B000831
:10091C00870B0008BD0B0008090C00083D0C0008F3
:10092C00710C0008A50C000800F0FEFAA74B012280
:10093C001A70DEE100F032FB012001F0DBF9034616
:10094C00002B05D000F058FBA04B02221A70B3E12B
:10095C009F48FFF789FF0346002B05D000F0D8FC19
:10096C009A4B09221A70A7E19A48FFF77DFF0346BC
:10097C00002B05D001F056F8944B0F221A709BE116
:10098C009548FFF771FF0346002B00F0958100F0AE
:10099C005FFC8E4B05221A708EE100F061FB01208A
:1009AC0001F0A8F90346002B05D000F087FB874B1C
:1009BC0003221A7082E18648FFF756FF0346002B8C
:1009CC0005D000F0A5FC814B09221A7076E1814814
:1009DC00FFF74AFF0346002B00F0708101F022F86C
:1009EC007A4B0F221A7069E100F0A2FB012001F092
:1009FC0081F90346002B05D000F0C8FB734B042291
:100A0C001A705DE17248FFF72FFF0346002B05D0EB
:100A1C0000F07EFC6D4B09221A7051E16D48FFF716
:100A2C0023FF0346002B05D000F0FCFF674B0F2281
:100A3C001A7045E16848FFF717FF0346002B00F0DA
:100A4C003F8100F037FC614B07221A7038E100F04F
:100A5C00D1FB012001F04EF90346002B05D000F02C
:100A6C0063FA5A4B01221A702CE15948FFF7FCFE2D
:100A7C000346002B05D000F04BFC544B09221A7096
:100A8C0020E15448FFF7F0FE0346002B00F01A81DA
:100A9C0000F0C8FF4D4B0F221A7013E100F0EAFB77
:100AAC004C48FFF7E1FE0346002B05D000F0EAFBB3
:100ABC00464B06221A7007E14748FFF7D5FE03465E
:100ACC00002B00F0018100F02FFA404B01221A702C
:100ADC00FAE000F0E7FB012001F00CF90346002BD3
:100AEC0000F0F48000F0E6FB384B07221A70EDE0C2
:100AFC0000F0EEFB3748FFF7B7FE0346002B05D09E
:100B0C0000F0EEFB314B08221A70E1E03248FFF79F
:100B1C00ABFE0346002B00F0DB8000F0CFFA2B4B32
:100B2C0003221A70D4E000F0EBFB012001F0E2F894
:100B3C000346002B00F0CE8000F08AFB234B0522ED
:100B4C001A70C7E000F00EFC2148FFF78DFE03463B
:100B5C00002B05D000F00CFD1C4B0B221A70BBE0D7
:100B6C001E4B1A681E4B1B689A4200F0B58000F0B1
:100B7C0047FC164B0A221A70AEE000F06FFC1448CA
:100B8C00FFF772FE0346002B05D000F0F1FC0F4B73
:100B9C000B221A70A2E0114B1A68114B1B689A4277
:100BAC0040F09C8000F0B4FB084B09221A7095E0D1
:100BBC0000F008FD0648FFF757FE0346002B11D046
:100BCC0000F006FE014B0D221A7089E0BC000020DB
:100BDC000000002024000020480000208800002095
:100BEC007C000020444B1A68444B1B689A4277D017
:100BFC0000F036FD424B0C221A7071E000F05EFDE5
:100C0C004048FFF731FE0346002B05D000F0E0FD15
:100C1C003B4B0D221A7065E0374B1A68374B1B683B
:100C2C009A425FD100F0A4FC354B0B221A7059E0AC
:100C3C0000F0F8FD3348FFF717FE0346002B05D0F4
:100C4C0000F072F92E4B01221A704DE02E4B1A68EF
:100C5C002E4B1B689A4247D000F032FE284B0E22D6
:100C6C001A7041E000F05AFE2648FFF7FDFD0346DE
:100C7C00002B05D000F058F9214B01221A7035E0F9
:100C8C00214B1A68214B1B689A422FD100F0A0FD12
:100C9C001B4B0D221A7029E000F0D6FE1C48FFF702
:100CAC00E3FD0346002B23D000F03EF9144B012248
:100CBC001A701DE000BF1CE000BF1AE000BF18E076
:100CCC0000BF16E000BF14E000BF12E000BF10E050
:100CDC0000BF0EE000BF0CE000BF0AE000BF08E060
:100CEC0000BF06E000BF04E000BF02E000BF00E070
:100CFC0000BF00BF80BD00BF8C0000208000002022
:100D0C00BC00002000000020900000208400002087
:100D1C002400002080B500AF002210210F4801F004
:100D2C0006FC012220210D4801F001FC012240218A
:100D3C000A4801F0FCFB00228021084801F0F7FB77
:100D4C0001224FF48071054801F0F1FB01224FF4B0
:100D5C000071024801F0EBFB00BF80BD000C0140AC
:100D6C0080B500AF012210210F4801F0E0FB0022FA
:100D7C0020210D4801F0DBFB012240210A4801F043
:100D8C00D6FB01228021084801F0D1FB00224FF450
:100D9C008071054801F0CBFB01224FF40071024831
:100DAC0001F0C5FB00BF80BD000C014080B500AF59
:100DBC00012210210F4801F0BAFB012220210D481D
:100DCC0001F0B5FB002240210A4801F0B0FB0122E2
:100DDC008021084801F0ABFB01224FF480710548DB
:100DEC0001F0A5FB00224FF40071024801F09FFBBB
:100DFC0000BF80BD000C014080B500AF0022102167
:100E0C000F4801F094FB012220210D4801F08FFBCB
:100E1C00012240210A4801F08AFB01228021084866
:100E2C0001F085FB01224FF48071054801F07FFB36
:100E3C0000224FF40071024801F079FB00BF80BD25
:100E4C00000C014080B500AF002210210F4801F0CA
:100E5C006EFB012220210D4801F069FB012240218B
:100E6C000A4801F064FB01228021084801F05FFB75
:100E7C0000224FF48071054801F059FB01224FF418
:100E8C000071024801F053FB00BF80BD000C014013
:100E9C0080B500AF012210210F4801F048FB012260
:100EAC0020210D4801F043FB002240210A4801F0AB
:100EBC003EFB00228021084801F039FB01224FF44F
:100ECC008071054801F033FB01224FF40071024898
:100EDC0001F02DFB00BF80BD000C014080B500AFC0
:100EEC00012210210F4801F022FB002220210D4885
:100EFC0001F01DFB012240210A4801F018FB0022E1
:100F0C008021084801F013FB01224FF48071054841
:100F1C0001F00DFB01224FF40071024801F007FBB8
:100F2C0000BF80BD000C014080B500AF144B1B68A6
:100F3C004FF47A7202FB03F31946012000F092FE83
:100F4C001048FFF7B7FC1048FFF7B4FC0F48FFF749
:100F5C00B1FCFFF7F5F80521022000F083FE4FF4F9
:100F6C007A71042000F07EFE094B1B68094A13605D
:100F7C00034B1B68084A1360FFF754F900BF80BD90
:100F8C0084000020000000202400002048000020E5
:100F9C007C000020D4000020D800002080B500AFD9
:100FAC00FFF72AFF022000F0A5FE0346002B05D018
:100FBC00FFF7F8F80521022000F054FE042000F0A1
:100FCC0099FE0346002B10D0094B1B68013B084AC5
:100FDC001360084B1B68013B064A1360FFF722F9AC
:100FEC004FF47A71042000F03DFE00BF80BD00BFBD
:100FFC00D4000020D800002080B500AF134B1B6834
:10100C004FF47A7202FB03F31946012000F02AFE1A
:10101C000F48FFF74FFC0F48FFF74CFCFFF790F819
:10102C000521022000F01EFE4FF47A71042000F01E
:10103C0019FE064B1B68084A1360044B1B68074AD1
:10104C001360FFF7EFF800BF80BD00BF80000020E9
:10105C000000002024000020D4000020D800002034
:10106C0080B500AFFFF7EEFE022000F043FE034612
:10107C00002B05D0FFF796F80521022000F0F2FDB9
:10108C00042000F037FE0346002B10D0094B1B68E0
:10109C00013B084A1360084B1B68013B064A13606E
:1010AC00FFF7C0F84FF47A71042000F0DBFD00BFAD
:1010BC0080BD00BFD4000020D800002080B500AF58
:1010CC00144B1B684FF47A7202FB03F31946012090
:1010DC0000F0C8FD1048FFF7EDFB1048FFF7EAFBE6
:1010EC000F48FFF7E7FBFFF72BF80521022000F074
:1010FC00B9FD4FF47A71042000F0B4FD054B1B6868
:10110C00084A1360084B1B68084A1360FFF78AF8FB
:10111C0000BF80BD840000200000002024000020BF
:10112C0048000020D40000207C000020D8000020C3
:10113C0080B500AFFFF7ACFE022000F0DBFD0346EC
:10114C00002B05D0FFF72EF80521022000F08AFDB8
:10115C00042000F0CFFD0346002B10D0094B1B6878
:10116C00013B084A1360084B1B68013B064A13609D
:10117C00FFF758F84FF47A71042000F073FD00BFAC
:10118C0080BD00BFD4000020D800002080B500AF87
:10119C00134B1B684FF47A7202FB03F319460120C0
:1011AC0000F060FD0F48FFF785FB0F48FFF782FB4F
:1011BC00FEF7C6FF0521022000F054FD4FF47A71B2
:1011CC00042000F04FFD064B1B68084A1360044BCB
:1011DC001B68074A1360FFF725F800BF80BD00BFEE
:1011EC00800000200000002024000020D4000020FB
:1011FC00D800002080B500AFFFF770FE022000F091
:10120C0079FD0346002B05D0FEF7CCFF052102200B
:10121C0000F028FD042000F06DFD0346002B10D0DB
:10122C00094B1B68013B084A1360084B1B68013BC8
:10123C00064A1360FEF7F6FF4FF47A71042000F0B3
:10124C0011FD00BF80BD00BFD4000020D8000020DD
:10125C0080B500AF0548FFF72DFB0548FFF72AFBCB
:10126C000521022000F0FEFC00BF80BD2400002000
:10127C004800002080B500AFFEF776FFFFF7BCFDFD
:10128C0000BF80BD80B500AF054B1B684FF47A7270
:10129C0002FB03F31946012000F0E4FC00BF80BD03
:1012AC008000002080B500AFFEF75EFFFFF7CAFD9F
:1012BC0000BF80BD80B500AF0348FFF7FBFA0348C1
:1012CC00FFF7F8FA00BF80BD240000204800002082
:1012DC0080B500AFFEF748FFFFF7DAFD00BF80BD19
:1012EC0080B500AF054B1B684FF47A7202FB03F319
:1012FC001946012000F0B6FC00BF80BD8000002024
:10130C0080B500AFFEF730FFFFF7E8FD00BF80BDF2
:10131C0080B500AF0E48FFF7CDFA0E4B1B680E4A96
:10132C001360FFF7F7FCFA21062000F09BFCFEF798
:10133C0007FF094B1B68094A1360094B09221A6005
:10134C00FEF770FF0521022000F08CFC00BF80BD71
:10135C00000000207C00002088000020D400002029
:10136C00D800002080B500AF2148FFF77DFA034676
:10137C00002B04D01F4B1B6801331E4A13601C4802
:10138C00FFF785FA0346002B04D01A4B1B68053374
:10139C00184A1360174B1B68632B02DD154B012297
:1013AC001A60144B1B68144A1360FEF73BFF0620AF
:1013BC0000F0A0FC0346002B0BD010210F4801F0CD
:1013CC00CEF880210D4801F0CAF8FA21062000F071
:1013DC0049FC022000F08EFC0346002B05D0FEF7E2
:1013EC00E1FE0521022000F03DFC00BF80BD00BFE6
:1013FC002400002088000020D4000020000C0140B4
:10140C0080B500AF1048FFF755FA1048FFF752FAB5
:10141C00FFF780FCFA21062000F024FCFEF790FE7A
:10142C000B4B1B680B4A13600B4B0A221A60FEF71E
:10143C00F9FE0521022000F015FCFA21032000F032
:10144C0011FC00BF80BD00BF000000204800002040
:10145C0088000020D4000020D800002080B500AF08
:10146C003A48FFF701FA0346002B04D0384B1B68AF
:10147C000133374A13603548FFF709FA0346002B4E
:10148C0004D0334B1B680533314A1360304B1B6857
:10149C00632B02DD2E4B01221A602E48FFF7E4F974
:1014AC000346002B10D02A4B1A682B4B1B689A4210
:1014BC000ADD274B1B68294A1360284B1A68264BF8
:1014CC001B68D31A264A1360214B1B68254A1360EC
:1014DC00FEF7A8FE062000F00DFC0346002B0BD0F7
:1014EC001021214801F03BF880211F4801F037F80A
:1014FC00FA21062000F0B6FB022000F0FBFB0346AD
:10150C00002B05D0FEF74EFE0521022000F0AAFBB1
:10151C00032000F0EFFB0346002B14D0134B1B6889
:10152C00002B06D1114B01221A60104B01225A607C
:10153C0005E00E4B00221A600C4B00225A60FA2177
:10154C00032000F08FFB00BF80BD00BF24000020F3
:10155C008800002048000020800000207C00002033
:10156C0084000020D4000020000C0140C4000020A6
:10157C0080B500AF0E48FFF79DF90E4B1B680E4A65
:10158C001360FFF7EDFBFA21062000F06BFBFEF772
:10159C00D7FD094B1B68094A1360094B0B221A60D3
:1015AC00FEF740FE0521022000F05CFB00BF80BD71
:1015BC0000000020800000208C000020D4000020BF
:1015CC00D800002080B500AF2148FFF74DF9034645
:1015DC00002B04D01F4B1B6801331E4A13601C48A0
:1015EC00FFF755F90346002B04D01A4B1B68053343
:1015FC00184A1360174B1B68632B02DD154B012235
:10160C001A60144B1B68144A1360FEF70BFE06207D
:10161C0000F070FB0346002B0CD020210F4800F08B
:10162C009EFF4FF480710D4800F099FFFA210620BF
:10163C0000F018FB022000F05DFB0346002B05D0E8
:10164C00FEF7B0FD0521022000F00CFB00BF80BDB1
:10165C00240000208C000020D4000020000C01404D
:10166C0080B500AF1048FFF725F91048FFF722F9B5
:10167C00FFF776FBFA21062000F0F4FAFEF760FD86
:10168C000B4B1B680B4A13600B4B0C221A60FEF7BA
:10169C00C9FD0521022000F0E5FAFA21032000F033
:1016AC00E1FA00BF80BD00BF000000204800002010
:1016BC008C000020D4000020D800002080B500AFA2
:1016CC003A48FFF7D1F80346002B04D0384B1B687F
:1016DC000133374A13603548FFF7D9F80346002B1E
:1016EC0004D0334B1B680533314A1360304B1B68F5
:1016FC00632B02DD2E4B01221A602E48FFF7B4F843
:10170C000346002B10D02C4B1A68294B1B689A42AD
:10171C000ADD274B1B68294A1360274B1A68274B95
:10172C001B68D31A264A1360214B1B68254A136089
:10173C00FEF778FD062000F0DDFA0346002B0CD0F6
:10174C002021214800F00BFF4FF480711E4800F05F
:10175C0006FFFA21062000F085FA022000F0CAFAF2
:10176C000346002B05D0FEF71DFD0521022000F0DD
:10177C0079FA032000F0BEFA0346002B14D0134B69
:10178C001B68002B06D1114B01221A600F4B012252
:10179C005A6005E00D4B00221A600C4B00225A6077
:1017AC00FA21032000F05EFA00BF80BD2400002067
:1017BC008C000020480000207C00002080000020CD
:1017CC0084000020D4000020000C0140C400002044
:1017DC0080B500AF0E48FFF76DF80E4B1B680E4A34
:1017EC001360FFF7E3FAFA21062000F03BFAFEF74C
:1017FC00A7FC094B1B68094A1360094B0D221A60A0
:10180C00FEF710FD0521022000F02CFA00BF80BD70
:10181C00000000208400002090000020D400002054
:10182C00D800002080B500AF2148FFF71DF8034613
:10183C00002B04D01F4B1B6801331E4A13601C483D
:10184C00FFF725F80346002B04D01A4B1B68053311
:10185C00184A1360174B1B68632B02DD154B0122D2
:10186C001A60144B1B68144A1360FEF7DBFC06204D
:10187C0000F040FA0346002B0CD040210F4800F03A
:10188C006EFE4FF400710D4800F069FEFA2106203F
:10189C0000F0E8F9022000F02DFA0346002B05D0E9
:1018AC00FEF780FC0521022000F0DCF900BF80BDB2
:1018BC002400002090000020D4000020000C0140E7
:1018CC0080B500AF1048FEF7F5FF1048FEF7F2FFA9
:1018DC00FFF76CFAFA21062000F0C4F9FEF730FC91
:1018EC000B4B1B680B4A13600B4B0E221A60FEF756
:1018FC0099FC0521022000F0B5F9FA21032000F033
:10190C00B1F900BF80BD00BF0000002048000020DE
:10191C0090000020D4000020D800002080B500AF3B
:10192C003748FEF7A1FF0346002B04D0354B1B684C
:10193C000133344A13603248FEF7A9FF0346002BEB
:10194C0004D0304B1B6805332E4A13602D4B1B689B
:10195C00632B02DD2B4B01221A602B48FEF784FF10
:10196C000346002B0AD0274B1B68284A1360274BD1
:10197C001A68274B1B681344264A1360214B1B68BB
:10198C00254A1360FEF74EFC062000F0B3F903461F
:10199C00002B0CD04021214800F0E1FD4FF40071E8
:1019AC001E4800F0DCFDFA21062000F05BF9022055
:1019BC0000F0A0F90346002B05D0FEF7F3FB052140
:1019CC00022000F04FF9032000F094F90346002B9D
:1019DC0014D0134B1B68002B06D1114B01221A603B
:1019EC000F4B01225A6005E00D4B00221A600C4B84
:1019FC0000225A60FA21032000F034F900BF80BDA8
:101A0C0024000020900000204800002084000020CA
:101A1C00800000207C000020D4000020000C01403D
:101A2C00C400002080B500AF0648FEF743FFFFF767
:101A3C0097F9FEF799FB4FF4FA71052000F012F9B3
:101A4C0000BF80BD2400002080B500AF052000F051
:101A5C0051F90346002B0DD02021074800F07FFDE3
:101A6C004FF48071044800F07AFD4FF4FA710520B0
:101A7C0000F0F8F800BF80BD000C014080B586B0C6
:101A8C0000AF07F1080300221A605A609A60DA600E
:101A9C00284B9B69274A43F004039361254B9B69B0
:101AAC0003F004037B607B68224B9B69214A43F063
:101ABC00080393611F4B9B6903F008033B603B6871
:101ACC00002241F6FF311C4800F031FD002247F2A4
:101ADC00F0311A4800F02BFD41F6FF33BB600123B7
:101AEC00FB6000233B6102237B6107F1080319466D
:101AFC00114800F089FB47F2F033BB600123FB6017
:101B0C0000233B6102237B6107F1080319460B4854
:101B1C0000F07AFB4FF48063BB600323FB6007F19A
:101B2C0008031946044800F06FFB00BF1837BD4688
:101B3C0080BD00BF0010024000080140000C0140B5
:101B4C0080B500AF00F0F0F900F040F8FFF796FF19
:101B5C0000F054F9184801F049F94FF47A71072054
:101B6C0000F080F81421002000F07CF8072000F031
:101B7C00C1F80346002B09D04FF480510F4800F0F8
:101B8C00EEFC4FF47A71072000F06CF8002000F0A6
:101B9C00B1F80346002B0CD00948FEF715FE094896
:101BAC00FEF712FE0848FEF70FFE1421002000F08D
:101BBC0059F8FEF78FFED9E72C01002000080140F0
:101BCC0000000020240000204800002080B590B0C8
:101BDC0000AF07F1180328220021184601F092FCEF
:101BEC003B1D00221A605A609A60DA601A61022367
:101BFC00BB610123BB621023FB6200237B6307F1F3
:101C0C001803184600F0C4FC0346002B01D000F06A
:101C1C0022F80F237B600023BB600023FB600023B2
:101C2C003B6100237B613B1D0021184600F032FF15
:101C3C000346002B01D000F00EF800BF4037BD4624
:101C4C0080BD80B582B000AF786000F023F800BF93
:101C5C000837BD4680BD80B400AF72B600BF00BF70
:101C6C00FDE7000080B483B000AF786039600849AC
:101C7C007B683A6841F83320054A7B68DB001344E3
:101C8C0000225A6000BF0C37BD4680BC704700BFB5
:101C9C00DC00002080B483B000AF00237B601DE02B
:101CAC00134A7B6852F83330002B14DD104A7B68E2
:101CBC0052F833305A1E0E497B6841F833200C4AD7
:101CCC007B6852F83330002B05DC094A7B68DB005B
:101CDC00134401225A607B6801337B607B68092BBB
:101CEC00DEDD00BF00BF0C37BD4680BC704700BFB7
:101CFC00DC00002080B483B000AF7860074A7B68BA
:101D0C00DB0013445B68002B01D0012300E00023AF
:101D1C0018460C37BD4680BC704700BFDC00002065
:101D2C0080B485B000AF154B9B69144A43F0010396
:101D3C009361124B9B6903F00103BB60BB680F4BB3
:101D4C00DB690E4A43F08053D3610C4BDB6903F023
:101D5C0080537B607B680A4B5B68FB60FB6823F0FD
:101D6C00E063FB60FB6843F08063FB60044AFB6844
:101D7C00536000BF1437BD4680BC70470010024052
:101D8C000000014080B400AF00BFFDE780B400AF9D
:101D9C0000BFFDE780B400AF00BFFDE780B400AF2B
:101DAC0000BFFDE780B400AF00BFFDE780B400AF1B
:101DBC0000BFBD4680BC704780B400AF00BFBD46BD
:101DCC0080BC704780B400AF00BFBD4680BC70477C
:101DDC0080B500AF00F0EEF800BF80BD80B500AF5D
:101DEC00024801F04FF800BF80BD00BF2C0100205D
:101DFC0080B400AF00BFBD4680BC704780B586B0D4
:101E0C0000AF07F1080300221A605A609A60DA608A
:101E1C003B4600221A605A601D4B4FF080421A60FC
:101E2C001B4B40F21F325A60194B00229A60184B20
:101E3C000922DA60164B00221A61154B00229A61B6
:101E4C00134800F083FF0346002B01D0FFF703FF7C
:101E5C004FF48053BB6007F1080319460C4801F09E
:101E6C0001F90346002B01D0FFF7F5FE00233B6080
:101E7C0000237B603B461946054801F0D9FA03461E
:101E8C00002B01D0FFF7E7FE00BF1837BD4680BD21
:101E9C002C01002080B584B000AF78607B681B6893
:101EAC00B3F1804F13D10C4BDB690B4A43F00103A8
:101EBC00D361094BDB6903F00103FB60FB68002273
:101ECC0000211C2000F069F91C2000F082F900BFF1
:101EDC001037BD4680BD00BF00100240FFF788FFE1
:101EEC000B480C490C4A002302E0D458C45004336C
:101EFC00C4188C42F9D3094A094C002301E0136041
:101F0C000432A242FBD301F005FBFFF719FE704728
:101F1C0000000020A0000020AC350008A00000202C
:101F2C0078010020FEE7000080B500AF084B1B686D
:101F3C00074A43F010031360032000F023F90F202D
:101F4C0000F008F8FFF7ECFE0023184680BD00BF38
:101F5C000020024080B582B000AF7860124B1A6846
:101F6C00124B1B7819464FF47A73B3FBF1F3B2FBA7
:101F7C00F3F3184600F03BF90346002B01D0012384
:101F8C000EE07B680F2B0AD8002279684FF0FF30E7
:101F9C0000F003F9064A7B681360002300E001237C
:101FAC0018460837BD4680BD940000209C000020D8
:101FBC009800002080B400AF054B1B781A46054BE7
:101FCC001B681344034A136000BFBD4680BC7047B6
:101FDC009C0000207401002080B400AF024B1B68F1
:101FEC001846BD4680BC70477401002080B485B093
:101FFC0000AF78607B6803F00703FB600C4BDB6879
:10200C00BB60BA684FF6FF031340BB60FB681A0253
:10201C00BB68134343F0BF6343F40033BB60044A13
:10202C00BB68D36000BF1437BD4680BC704700BF8F
:10203C0000ED00E080B400AF044BDB681B0A03F03A
:10204C0007031846BD4680BC704700BF00ED00E09A
:10205C0080B483B000AF0346FB7197F90730002BB7
:10206C000BDBFB7903F01F02064997F907305B097C
:10207C00012000FA02F241F8232000BF0C37BD46C4
:10208C0080BC704700E100E080B483B000AF034631
:10209C003960FB7197F90730002B0ADB3B68DAB229
:1020AC000C4997F907301201D2B20B4483F8002384
:1020BC000AE03B68DAB20849FB7903F00F03043BF2
:1020CC001201D2B20B441A7600BF0C37BD4680BC4D
:1020DC00704700BF00E100E000ED00E080B489B083
:1020EC0000AFF860B9607A60FB6803F00703FB612E
:1020FC00FB69C3F10703042B28BF0423BB61FB69F5
:10210C000433062B02D9FB69033B00E000237B61FF
:10211C004FF0FF32BB6902FA03F3DA43BB681A4093
:10212C007B699A404FF0FF317B6901FA03F3D94385
:10213C007B680B40134318462437BD4680BC704760
:10214C0080B582B000AF78607B68013BB3F1807FD3
:10215C0001D301230FE00A4A7B68013B53600F2136
:10216C004FF0FF30FFF790FF054B00229A60044BB5
:10217C0007221A60002318460837BD4680BD00BFF1
:10218C0010E000E080B582B000AF78607868FFF7AF
:10219C002DFF00BF0837BD4680BD80B586B000AFAF
:1021AC000346B9607A60FB7300237B61FFF742FF43
:1021BC0078617A68B9687869FFF790FF024697F9F9
:1021CC000F3011461846FFF75FFF00BF1837BD46AA
:1021DC0080BD80B582B000AF0346FB7197F9073024
:1021EC001846FFF735FF00BF0837BD4680BD80B5E8
:1021FC0082B000AF78607868FFF7A2FF03461846FC
:10220C000837BD4680BD000080B48BB000AF78604D
:10221C00396000237B6200233B6261E101227B6A0F
:10222C0002FA03F3FB613B681B68FA691340BB615C
:10223C00BA69FB699A4240F050813B685B68974AE7
:10224C0093425ED0954A934275D8954A934258D0A2
:10225C00934A93426FD8934A934252D0914A9342F5
:10226C0069D8914A93424CD08F4A934263D88F4A93
:10227C00934246D08D4A93425DD8122B2AD8122B0A
:10228C0059D801A252F823F00F230008E9220008C4
:10229C00FB2200083D2300084323000843230008C9
:1022AC00432300084323000843230008432300086A
:1022BC00432300084323000843230008432300085A
:1022CC00432300084323000843230008F12200089D
:1022DC0005230008764A934213D02CE03B68DB6858
:1022EC003B6229E03B68DB6804333B6224E03B68DB
:1022FC00DB6808333B621FE03B68DB680C333B62F6
:10230C001AE03B689B68002B02D104233B6213E06C
:10231C003B689B68012B05D108233B627B68FA69FB
:10232C001A6109E008233B627B68FA695A6103E091
:10233C0000233B6200E000BFBB69FF2B01D87B6828
:10234C0001E07B6804337B61BB69FF2B02D87B6A9D
:10235C009B0002E07B6A083B9B003B617B691A682F
:10236C000F213B6901FA03F3DB431A40396A3B69DD
:10237C0001FA03F31A437B691A603B685B6803F04C
:10238C008053002B00F0A9804A4B9B69494A43F0CB
:10239C0001039361474B9B6903F00103BB60BB686E
:1023AC00454A7B6A9B08023352F82330FB607B6AF8
:1023BC0003F003039B000F2202FA03F3DB43FA68DA
:1023CC001340FB607B683D4A93420DD07B683C4ACE
:1023DC00934207D07B683B4A934201D1022304E02D
:1023EC00032302E0012300E000237A6A02F00302D7
:1023FC0092009340FA681343FB602F497B6A9B0859
:10240C000233FA6841F823203B685B6803F48013BD
:10241C00002B06D02C4B9A682B49BB6913438B605D
:10242C0006E0294B9A68BB69DB43274913408B6054
:10243C003B685B6803F40013002B06D0224BDA6870
:10244C002149BB691343CB6006E01F4BDA68BB69BB
:10245C00DB431D491340CB603B685B6803F40033DE
:10246C00002B06D0184B5A681749BB6913434B60B5
:10247C0006E0154B5A68BB69DB43134913404B60AC
:10248C003B685B6803F48033002B1FD00E4B1A683B
:10249C000D49BB6913430B601FE000BF00003210F5
:1024AC00000031100000221000002110000012105A
:1024BC000000111000100240000001400008014013
:1024CC00000C014000100140000401400B4B1A6845
:1024DC00BB69DB43094913400B607B6A01337B62A8
:1024EC003B681A687B6A22FA03F3002B7FF496AEE2
:1024FC0000BF00BF2C37BD4680BC704700040140B4
:10250C0080B485B000AF78600B467B807B689A689E
:10251C007B881340002B02D00123FB7301E00023C6
:10252C00FB73FB7B18461437BD4680BC704780B4E8
:10253C0083B000AF78600B467B8013467B707B7852
:10254C00002B03D07A887B681A6103E07B881A041D
:10255C007B681A6100BF0C37BD4680BC704780B4E5
:10256C0085B000AF78600B467B807B68DB68FB60D6
:10257C007A88FB6813401A04FB68D9437B880B40AC
:10258C001A437B681A6100BF1437BD4680BC704784
:10259C0080B586B000AF78607B68002B01D1012339
:1025AC0072E27B681B6803F00103002B00F087804C
:1025BC00924B5B6803F00C03042B0CD08F4B5B68C5
:1025CC0003F00C03082B12D18C4B5B6803F48033A3
:1025DC00B3F5803F0BD1894B1B6803F40033002B00
:1025EC006CD07B685B68002B68D101234CE27B6864
:1025FC005B68B3F5803F06D1804B1B687F4A43F480
:10260C00803313602EE07B685B68002B0CD17B4B16
:10261C001B687A4A23F480331360784B1B68774A23
:10262C0023F4802313601DE07B685B68B3F5A02F57
:10263C000CD1724B1B68714A43F4802313606F4BAF
:10264C001B686E4A43F4803313600BE06B4B1B68C2
:10265C006A4A23F480331360684B1B68674A23F47F
:10266C00802313607B685B68002B13D0FFF7B4FCEE
:10267C00386108E0FFF7B0FC02463B69D31A642BC3
:10268C0001D9032300E25D4B1B6803F40033002BDC
:10269C00F0D014E0FFF7A0FC386108E0FFF79CFCD9
:1026AC0002463B69D31A642B01D90323ECE1534B4B
:1026BC001B6803F40033002BF0D100E000BF7B68F3
:1026CC001B6803F00203002B63D04C4B5B6803F0D8
:1026DC000C03002B0BD0494B5B6803F00C03082B4D
:1026EC001CD1464B5B6803F48033002B16D1434B53
:1026FC001B6803F00203002B05D07B681B69012BC0
:10270C0001D00123C0E13D4B1B6823F0F8027B682C
:10271C005B69DB00394913430B603AE07B681B694A
:10272C00002B20D0364B01221A60FFF755FC386184
:10273C0008E0FFF751FC02463B69D31A022B01D982
:10274C000323A1E12D4B1B6803F00203002BF0D0F7
:10275C002A4B1B6823F0F8027B685B69DB00274976
:10276C0013430B6015E0264B00221A60FFF734FC74
:10277C00386108E0FFF730FC02463B69D31A022BA4
:10278C0001D9032380E11D4B1B6803F00203002BCE
:10279C00F0D17B681B6803F00803002B3AD07B68F0
:1027AC009B69002B19D0174B01221A60FFF714FC00
:1027BC00386108E0FFF710FC02463B69D31A022B84
:1027CC0001D9032360E10D4B5B6A03F00203002B7C
:1027DC00F0D0012000F09CFA1CE00A4B00221A6099
:1027EC00FFF7FAFB38610FE0FFF7F6FB02463B6997
:1027FC00D31A022B08D9032346E100BF0010024074
:10280C000000424280044242924B5B6A03F0020396
:10281C00002BE9D17B681B6803F00403002B00F04C
:10282C00A6800023FB758B4BDB6903F08053002BD8
:10283C000DD1884BDB69874A43F08053D361854BBC
:10284C00DB6903F08053BB60BB680123FB75824BD3
:10285C001B6803F48073002B18D17F4B1B687E4AD6
:10286C0043F480731360FFF7B7FB386108E0FFF7A0
:10287C00B3FB02463B69D31A642B01D9032303E152
:10288C00754B1B6803F48073002BF0D07B68DB68FE
:10289C00012B06D16F4B1B6A6E4A43F00103136286
:1028AC002DE07B68DB68002B0CD16A4B1B6A694AF4
:1028BC0023F001031362674B1B6A664A23F004037F
:1028CC0013621CE07B68DB68052B0CD1614B1B6A27
:1028DC00604A43F0040313625E4B1B6A5D4A43F08B
:1028EC00010313620BE05B4B1B6A5A4A23F0010392
:1028FC001362584B1B6A574A23F0040313627B681C
:10290C00DB68002B15D0FFF767FB38610AE0FFF797
:10291C0063FB02463B69D31A41F28832934201D9D8
:10292C000323B1E04B4B1B6A03F00203002BEED0E8
:10293C0014E0FFF751FB38610AE0FFF74DFB02464C
:10294C003B69D31A41F28832934201D903239BE0AD
:10295C00404B1B6A03F00203002BEED1FB7D012BD5
:10296C0005D13C4BDB693B4A23F08053D3617B6838
:10297C00DB69002B00F08780364B5B6803F00C039F
:10298C00082B61D07B68DB69022B46D1334B0022CC
:10299C001A60FFF721FB386108E0FFF71DFB0246C8
:1029AC003B69D31A022B01D903236DE0294B1B6819
:1029BC0003F00073002BF0D17B681B6AB3F5803FEA
:1029CC0008D1244B5B6823F400327B689B68214957
:1029DC0013434B601F4B5B6823F474127B68196ABA
:1029EC007B685B6A0B431B4913434B601B4B0122F7
:1029FC001A60FFF7F1FA386108E0FFF7EDFA0246CA
:102A0C003B69D31A022B01D903233DE0114B1B6800
:102A1C0003F00073002BF0D035E0104B00221A604D
:102A2C00FFF7DAFA386108E0FFF7D6FA02463B699D
:102A3C00D31A022B01D9032326E0064B1B6803F0A3
:102A4C000073002BF0D11EE07B68DB69012B07D1F2
:102A5C00012319E000100240007000406000424267
:102A6C000B4B5B68FB60FB6803F480327B681B6A72
:102A7C009A4206D1FB6803F470127B685B6A9A4237
:102A8C0001D0012300E0002318461837BD4680BD55
:102A9C000010024080B584B000AF786039607B686C
:102AAC00002B01D10123D0E06A4B1B6803F0070314
:102ABC003A689A4210D9674B1B6823F007026549A4
:102ACC003B6813430B60634B1B6803F007033A68C6
:102ADC009A4201D00123B8E07B681B6803F0020323
:102AEC00002B20D07B681B6803F00403002B05D05F
:102AFC00594B5B68584A43F4E06353607B681B682E
:102B0C0003F00803002B05D0534B5B68524A43F487
:102B1C0060535360504B5B6823F0F0027B689B68FA
:102B2C004D4913434B607B681B6803F00103002B7A
:102B3C0040D07B685B68012B07D1474B1B6803F4C3
:102B4C000033002B15D101237FE07B685B68022BDF
:102B5C0007D1414B1B6803F00073002B09D10123F3
:102B6C0073E03D4B1B6803F00203002B01D10123E2
:102B7C006BE0394B5B6823F003027B685B6836497A
:102B8C0013434B60FFF728FAF8600AE0FFF724FACA
:102B9C000246FB68D31A41F28832934201D90323CF
:102BAC0053E02D4B5B6803F00C027B685B689B0069
:102BBC009A42EBD1274B1B6803F007033A689A4201
:102BCC0010D2244B1B6823F0070222493B681343A5
:102BDC000B60204B1B6803F007033A689A4201D044
:102BEC00012332E07B681B6803F00403002B08D040
:102BFC00194B5B6823F4E0627B68DB68164913436E
:102C0C004B607B681B6803F00803002B09D0124B48
:102C1C005B6823F460527B681B69DB000E4913432D
:102C2C004B6000F021F802460B4B5B681B0903F06C
:102C3C000F030A49CB5C22FA03F3094A1360094BD0
:102C4C001B681846FFF786F9002318461037BD4657
:102C5C0080BD00BF002002400010024080350008FB
:102C6C00940000209800002080B487B000AF0023AF
:102C7C00FB600023BB6000237B6100237B6000238F
:102C8C003B611E4B5B68FB60FB6803F00C03042B81
:102C9C0002D0082B03D027E0194B3B6127E0FB68DF
:102CAC009B0C03F00F03174AD35C7B60FB6803F4A7
:102CBC008033002B10D0114B5B685B0C03F00103CD
:102CCC00114AD35CBB607B680D4A03FB02F2BB6804
:102CDC00B2FBF3F37B6104E07B680C4A02FB03F369
:102CEC007B617B693B6102E0054B3B6100BF3B694B
:102CFC0018461C37BD4680BC704700BF0010024010
:102D0C0000127A0090350008A035000800093D003B
:102D1C0080B485B000AF78600A4B1B680A4AA2FBEE
:102D2C0003235B0A7A6802FB03F3FB6000BFFB68BA
:102D3C005A1EFA60002BF9D100BF00BF1437BD46F4
:102D4C0080BC704794000020D34D621080B582B0D7
:102D5C0000AF78607B68002B01D1012341E07B68D8
:102D6C0093F83D30DBB2002B06D17B68002283F850
:102D7C003C207868FFF78EF87B68022283F83D20B0
:102D8C007B681A687B6804331946104600F056FAC3
:102D9C007B68012283F846207B68012283F83E2061
:102DAC007B68012283F83F207B68012283F8402056
:102DBC007B68012283F841207B68012283F8422042
:102DCC007B68012283F843207B68012283F844202E
:102DDC007B68012283F845207B68012283F83D2023
:102DEC00002318460837BD4680BD000080B485B06E
:102DFC0000AF78607B6893F83D30DBB2012B01D0DB
:102E0C00012335E07B68022283F83D207B681B6838
:102E1C00DA687B681B6842F00102DA607B681B6829
:102E2C00164A934209D07B681B68B3F1804F04D0DB
:102E3C007B681B68124A934211D17B681B689B68A4
:102E4C0003F00703FB60FB68062B10D07B681B6844
:102E5C001A687B681B6842F001021A6007E07B6805
:102E6C001B681A687B681B6842F001021A60002319
:102E7C0018461437BD4680BC704700BF002C01407B
:102E8C000004004080B584B000AF78607B681B689C
:102E9C00DB68FB607B681B681B69BB60BB6803F06D
:102EAC000203002B20D0FB6803F00203002B1BD085
:102EBC007B681B686FF002021A617B6801221A772B
:102ECC007B681B689B6903F00303002B03D07868B5
:102EDC0000F098F905E0786800F08BF9786800F05C
:102EEC009AF97B6800221A77BB6803F00403002B65
:102EFC0020D0FB6803F00403002B1BD07B681B68FD
:102F0C006FF004021A617B6802221A777B681B68D7
:102F1C009B6903F44073002B03D0786800F072F9BE
:102F2C0005E0786800F065F9786800F074F97B6862
:102F3C0000221A77BB6803F00803002B20D0FB6833
:102F4C0003F00803002B1BD07B681B686FF0080292
:102F5C001A617B6804221A777B681B68DB6903F0B3
:102F6C000303002B03D0786800F04CF905E0786877
:102F7C0000F03FF9786800F04EF97B6800221A7770
:102F8C00BB6803F01003002B20D0FB6803F0100388
:102F9C00002B1BD07B681B686FF010021A617B68DA
:102FAC0008221A777B681B68DB6903F44073002BDB
:102FBC0003D0786800F026F905E0786800F019F97C
:102FCC00786800F028F97B6800221A77BB6803F058
:102FDC000103002B0CD0FB6803F00103002B07D07E
:102FEC007B681B686FF001021A617868FEF729FE96
:102FFC00BB6803F08003002B0CD0FB6803F080034C
:10300C00002B07D07B681B686FF080021A61786810
:10301C0000F06FFABB6803F04003002B0CD0FB6888
:10302C0003F04003002B07D07B681B686FF0400255
:10303C001A61786800F0F8F8BB6803F02003002BE5
:10304C000CD0FB6803F02003002B07D07B681B68B7
:10305C006FF020021A61786800F042FA00BF103756
:10306C00BD4680BD80B584B000AF78603960002368
:10307C00FB737B6893F83C30012B01D10223B4E045
:10308C007B68012283F83C207B68022283F83D2078
:10309C007B681B689B68BB60BB6823F07703BB60D5
:1030AC00BB6823F47F43BB607B681B68BA689A607B
:1030BC003B681B68B3F5005F3ED0B3F5005F00F2D0
:1030CC008780B3F5805F00F08680B3F5805F7FD892
:1030DC00702B1AD0702B7BD8602B50D0602B77D8EC
:1030EC00502B3CD0502B73D8402B58D0402B6FD842
:1030FC00302B64D0302B6BD8202B60D0202B67D892
:10310C00002B5CD0102B5AD062E07B6818683B68AF
:10311C0099683B685A683B68DB6800F06AF97B6821
:10312C001B689B68BB60BB6843F07703BB607B6824
:10313C001B68BA689A604FE07B6818683B689968AE
:10314C003B685A683B68DB6800F053F97B681B6886
:10315C009A687B681B6842F480429A603CE07B680A
:10316C0018683B6859683B68DB681A4600F0CAF877
:10317C007B681B685021184600F021F92CE07B6815
:10318C0018683B6859683B68DB681A4600F0E8F839
:10319C007B681B686021184600F011F91CE07B6805
:1031AC0018683B6859683B68DB681A4600F0AAF857
:1031BC007B681B684021184600F001F90CE07B6825
:1031CC001A683B681B681946104600F0F8F803E0D3
:1031DC000123FB7300E000BF7B68012283F83D20D4
:1031EC007B68002283F83C20FB7B18461037BD46D9
:1031FC0080BD80B483B000AF786000BF0C37BD4693
:10320C0080BC704780B483B000AF786000BF0C37CF
:10321C00BD4680BC704780B483B000AF786000BFFF
:10322C000C37BD4680BC704780B483B000AF78606B
:10323C0000BF0C37BD4680BC7047000080B485B021
:10324C0000AF786039607B681B68FB607B682B4A39
:10325C00934207D07B68B3F1804F03D07B68284A38
:10326C00934208D1FB6823F07003FB603B685B68FA
:10327C00FA681343FB607B68204A934207D07B6853
:10328C00B3F1804F03D07B681D4A934208D1FB6891
:10329C0023F44073FB603B68DB68FA681343FB6004
:1032AC00FB6823F080023B685B691343FB607B681F
:1032BC00FA681A603B689A687B68DA623B681A683D
:1032CC007B689A627B680D4A934203D13B681A690A
:1032DC007B681A637B6801225A617B681B6903F067
:1032EC000103002B05D07B681B6923F001027B686E
:1032FC001A6100BF1437BD4680BC7047002C0140DA
:10330C000004004080B487B000AFF860B9607A6008
:10331C00FB681B6A7B61FB681B6A23F00102FB687C
:10332C001A62FB689B693B613B6923F0F0033B61CC
:10333C007B681B013A6913433B617B6923F00A03E9
:10334C007B617A69BB6813437B61FB683A699A615C
:10335C00FB687A691A6200BF1C37BD4680BC704797
:10336C0080B487B000AFF860B9607A60FB681B6A04
:10337C007B61FB681B6A23F01002FB681A62FB6816
:10338C009B693B613B6923F470433B617B681B0386
:10339C003A6913433B617B6923F0A0037B61BB68F3
:1033AC001B017A6913437B61FB683A699A61FB687C
:1033BC007A691A6200BF1C37BD4680BC704780B466
:1033CC0085B000AF786039607B689B68FB60FB68F8
:1033DC0023F07003FB603A68FB68134343F0070368
:1033EC00FB607B68FA689A6000BF1437BD4680BCEE
:1033FC00704780B487B000AFF860B9607A603B600A
:10340C00FB689B687B617B6923F47F437B613B6832
:10341C001A027B681A43BB6813437A6913437B61B6
:10342C00FB687A699A6000BF1C37BD4680BC704748
:10343C0080B485B000AF786039607B6893F83C301D
:10344C00012B01D1022341E07B68012283F83C204F
:10345C007B68022283F83D207B681B685B68FB60FD
:10346C007B681B689B68BB60FB6823F07003FB6088
:10347C003B681B68FA681343FB607B681B68FA683F
:10348C005A607B681B68144A934209D07B681B689E
:10349C00B3F1804F04D07B681B68104A93420CD167
:1034AC00BB6823F08003BB603B685B68BA6813435E
:1034BC00BB607B681B68BA689A607B68012283F8E2
:1034CC003D207B68002283F83C20002318461437EB
:1034DC00BD4680BC704700BF002C0140000400407A
:1034EC0080B483B000AF786000BF0C37BD4680BCA1
:1034FC00704780B483B000AF786000BF0C37BD4616
:10350C0080BC704703460244934200D1704703F8D5
:10351C00011BF9E770B500260C4D0D4C641BA41073
:10352C00A64209D100F01AF800260A4D0A4C641B79
:10353C00A410A64205D170BD55F8043B984701363E
:10354C00EEE755F8043B98470136F2E7A43500083E
:10355C00A4350008A4350008A8350008F8B500BF4C
:10356C00F8BC08BC9E467047F8B500BFF8BC08BC58
:04357C009E467047B0
:103580000000000000000000010203040607080913
:1035900002030405060708090A0B0C0D0E0F101094
:0435A0000102000024
:0435A40031010008E9
:0435A8000D01000809
:1035AC00010000000100000001000000010000000B
:1035BC00F40100000000000000000000000C0140BD
:1035CC0000100000010000000100000001000000DC
:1035DC0001000000F40100000000000000000000E9
:1035EC00000C014000200000010000000100000060
:1035FC000100000001000000F401000000000000C8
:10360C0000000000000C0140004000000000000021
:10361C000500000000000000030000000F00000087
:10362C00030000000C000000050000000200000078
:10363C000300000000127A001000000001000000DE
:0400000508001EE9E8
:00000001FF
