:020000040800F2
:1000000000280020851E00082D1D0008351D000851
:100010003D1D0008451D00084D1D000800000000A2
:10002000000000000000000000000000551D000856
:10003000611D0008000000006D1D0008791D00080A
:10004000CD1E0008CD1E0008CD1E0008CD1E0008E4
:10005000CD1E0008CD1E0008CD1E0008CD1E0008D4
:10006000CD1E0008CD1E0008CD1E0008CD1E0008C4
:10007000CD1E0008CD1E0008CD1E0008CD1E0008B4
:10008000CD1E0008CD1E0008CD1E0008CD1E0008A4
:10009000CD1E0008CD1E0008CD1E0008CD1E000894
:1000A000CD1E0008CD1E0008CD1E0008CD1E000884
:1000B000851D0008CD1E000800000000CD1E0008B0
:1000C000CD1E00080000000000000000CD1E00084A
:1000D00000000000CD1E0008CD1E0008000000003A
:1000E000CD1E0008CD1E0008CD1E00080000000037
:1000F0000000000000000000000000000000000000
:0C01000000000000000000005FF808F1A3
:10010C0010B5054C237833B9044B13B10448AFF345
:10011C0000800123237010BDA0000020000000000F
:10012C000435000808B5034B1BB103490348AFF372
:10013C00008008BD00000000A40000200435000869
:10014C0080B400AF074B00221A60064B00225A60A5
:10015C00044B00229A60034B0022DA6000BFBD46BC
:10016C0080BC7047C400002080B500AF00224FF463
:10017C0080710B4802F0A9F900224FF40071084875
:10018C0002F0A3F900224FF48061054802F09DF9BA
:10019C0000224FF40061024802F097F900BF80BDC5
:1001AC000008014080B500AF0F4B1B680F4A52F896
:1001BC002330002B0AD10C4B1A680B4B1B680C49D3
:1001CC0051F823301946104600F054F8064B1B68C2
:1001DC000133054A1360044B1B68032B02DD024BF1
:1001EC0000221A6000BF80BDC0000020C4000020A7
:1001FC006C00002080B400AF1A4B1B681A4A82FBBB
:10020C0003129210DB17D31A184A1360154B196896
:10021C00154B83FB01239A10CB17D21A13469B0064
:10022C0013445B00CA1A114B5A60114B1B680E4ADF
:10023C0082FB03129210DB17D31A0C4A93600C4BFF
:10024C001968094B83FB01239A10CB17D21A13465A
:10025C009B0013445B00CA1A044BDA6000BFBD4616
:10026C0080BC7047D4000020676666666C00002076
:10027C00D800002080B582B000AF78603960FFF7FD
:10028C0073FF386800F008F8786800F0F1F900BFE7
:10029C000837BD4680BD000080B582B000AF7860E5
:1002AC007B68092B00F2B48101A252F823F000BF45
:1002BC00E50200083703000889030008DB03000887
:1002CC002D0400087F040008D10400082305000851
:1002DC0075050008C705000800220121CB4802F073
:1002EC00F4F800220221C94802F0EFF800220421A0
:1002FC00C64802F0EAF800220821C44802F0E5F8EA
:10030C0000221021C14802F0E0F800222021BF4851
:10031C0002F0DBF801224021BC4802F0D6F80122A1
:10032C008021BA4802F0D1F89BE101220121B748A3
:10033C0002F0CBF800220221B44802F0C6F80022E9
:10034C000421B24802F0C1F801220821AF4802F0A2
:10035C00BCF801221021AD4802F0B7F8012220218F
:10036C00AA4802F0B2F801224021A84802F0ADF8E8
:10037C0001228021A54802F0A8F872E10022012197
:10038C00A24802F0A2F800220221A04802F09DF837
:10039C00012204219D4802F098F8002208219B4874
:1003AC0002F093F800221021984802F08EF80122F6
:1003BC002021964802F089F800224021934802F04F
:1003CC0084F801228021914802F07FF849E1002253
:1003DC0001218E4802F079F8002202218B4802F0AC
:1003EC0074F800220421894802F06FF800220821D9
:1003FC00864802F06AF801221021844802F065F860
:10040C0001222021814802F060F8002240217F481F
:10041C0002F05BF8012280217C4802F056F820E1C2
:10042C0001220121794802F050F80022022177487C
:10043C0002F04BF800220421744802F046F8012225
:10044C000821724802F041F8012210216F4802F095
:10045C003CF8002220216D4802F037F800224021A0
:10046C006A4802F032F801228021684802F02DF827
:10047C00F7E000220121654802F027F80122022151
:10048C00624802F022F800220421604802F01DF8B4
:10049C00002208215D4802F018F8012210215B4867
:1004AC0002F013F800222021584802F00EF8002226
:1004BC004021564802F009F801228021534802F0ED
:1004CC0004F8CEE000220121504801F0FEFF012289
:1004DC0002214E4801F0F9FF002204214B4801F0A3
:1004EC00F4FF00220821494801F0EFFF00221021FF
:1004FC00464801F0EAFF00222021444801F0E5FFC4
:10050C0000224021414801F0E0FF012280213F48B8
:10051C0001F0DBFFA5E0002201213C4801F0D5FFF2
:10052C0000220221394801F0D0FF00220421374873
:10053C0001F0CBFF01220821344801F0C6FF012253
:10054C001021324801F0C1FF012220212F4801F077
:10055C00BCFF012240212D4801F0B7FF0122802170
:10056C002A4801F0B2FF7CE000220121274801F06B
:10057C00ACFF00220221254801F0A7FF0022042134
:10058C00224801F0A2FF00220821204801F09DFF23
:10059C00002210211D4801F098FF002220211B4849
:1005AC0001F093FF00224021184801F08EFF012238
:1005BC008021164801F089FF53E0002201211348E5
:1005CC0001F083FF00220221104801F07EFF00227F
:1005DC0004210E4801F079FF002208210B4801F09C
:1005EC0074FF01221021094801F06FFF0022202125
:1005FC00064801F06AFF00224021044801F065FF23
:10060C0001228021014801F060FF2AE0000801402E
:10061C0001220121154801F058FF01220221134843
:10062C0001F053FF01220421104801F04EFF01227A
:10063C0008210E4801F049FF012210210B4801F05E
:10064C0044FF01222021094801F03FFF01224021F3
:10065C00064801F03AFF01228021044801F035FFE1
:10066C0000BF00BF0837BD4680BD00BF0008014079
:10067C0080B582B000AF78607B68032B6ED801A286
:10068C0052F823F0A1060008D3060008050700085D
:10069C003707000801224FF48071334801F015FF31
:1006AC0000224FF40071304801F00FFF00224FF48C
:1006BC0080612D4801F009FF00224FF400612A48A7
:1006CC0001F003FF4BE000224FF48071264801F04B
:1006DC00FCFE01224FF40071234801F0F6FE0022CB
:1006EC004FF48061204801F0F0FE00224FF40061CD
:1006FC001D4801F0EAFE32E000224FF480711A48E6
:10070C0001F0E3FE00224FF40071174801F0DDFE0A
:10071C0001224FF48061144801F0D7FE00224FF4FF
:10072C000061114801F0D1FE19E000224FF48071F4
:10073C000D4801F0CAFE00224FF400710A4801F086
:10074C00C4FE00224FF48061074801F0BEFE012276
:10075C004FF40061044801F0B8FE00E000BF00BF98
:10076C000837BD4680BD00BF0008014080B582B08F
:10077C0000AF78607B685A687B689A607B681A68FF
:10078C007B685A607B68DA697B681B8C194610465B
:10079C0001F084FE03461A467B681A607B681A686F
:1007AC007B685B689A422DD17B685A687B689B6832
:1007BC009A4227D17B689A687B68DB689A420ED094
:1007CC007B689A687B68DA607B68DB68002B19D1E0
:1007DC007B6819221A617B6801225A6112E07B68DE
:1007EC001B695A1E7B681A617B681B69002B09DC2C
:1007FC007B6819221A617B68DB68002B02D17B684D
:10080C0001229A6100BF0837BD4680BD80B483B019
:10081C0000AF78607B685B69012B04D17B68002298
:10082C005A61012300E0002318460C37BD4680BCFA
:10083C00704780B483B000AF78607B689B69012BF4
:10084C0004D17B6800229A61012300E00023184642
:10085C000C37BD4680BC704780B483B000AF786065
:10086C007B6800225A617B6800229A6100BF0C37BA
:10087C00BD4680BC7047000080B500AFBC4B1B78F8
:10088C000F2B00F2E98101A252F823F0D9080008DD
:10089C00E50800084B09000899090008FF09000841
:1008AC004D0A0008830A0008A10A0008D70A0008AC
:1008BC00F50A00082B0B0008610B0008AD0B0008B3
:1008CC00E10B0008150C0008490C000800F0FEFABA
:1008DC00A74B01221A70DEE100F032FB012001F07F
:1008EC00D7F90346002B05D000F058FBA04B022291
:1008FC001A70B3E19F48FFF789FF0346002B05D020
:10090C0000F0D8FC9A4B09221A70A7E19A48FFF71D
:10091C007DFF0346002B05D001F056F8944B0F22B7
:10092C001A709BE19548FFF771FF0346002B00F00E
:10093C00958100F05FFC8E4B05221A708EE100F061
:10094C0061FB012001F0A4F90346002B05D000F057
:10095C0087FB874B03221A7082E18648FFF756FF0C
:10096C000346002B05D000F0A5FC814B09221A7020
:10097C0076E18148FFF74AFF0346002B00F07081B7
:10098C0001F022F87A4B0F221A7069E100F0A2FBF9
:10099C00012001F07DF90346002B05D000F0C8FBC7
:1009AC00734B04221A705DE17248FFF72FFF034668
:1009BC00002B05D000F07EFC6D4B09221A7051E122
:1009CC006D48FFF723FF0346002B05D000F0FCFF1A
:1009DC00674B0F221A7045E16848FFF717FF034673
:1009EC00002B00F03F8100F037FC614B07221A709E
:1009FC0038E100F0D1FB012001F04AF90346002B4D
:100A0C0005D000F063FA5A4B01221A702CE15948B8
:100A1C00FFF7FCFE0346002B05D000F04BFC544BBB
:100A2C0009221A7020E15448FFF7F0FE0346002B10
:100A3C0000F01A8100F0C8FF4D4B0F221A7013E121
:100A4C0000F0EAFB4C48FFF7E1FE0346002B05D013
:100A5C0000F0EAFB464B06221A7007E14748FFF705
:100A6C00D5FE0346002B00F0018100F02FFA404B1D
:100A7C0001221A70FAE000F0E7FB012001F008F9FE
:100A8C000346002B00F0F48000F0E6FB384B072205
:100A9C001A70EDE000F0EEFB3748FFF7B7FE0346A7
:100AAC00002B05D000F0EEFB314B08221A70E1E070
:100ABC003248FFF7ABFE0346002B00F0DB8000F062
:100ACC00CFFA2B4B03221A70D4E000F0EBFB012081
:100ADC0001F0DEF80346002B00F0CE8000F08AFB1C
:100AEC00234B05221A70C7E000F00EFC2148FFF7DB
:100AFC008DFE0346002B05D000F00CFD1C4B0B2289
:100B0C001A70BBE01E4B1A681E4B1B689A4200F011
:100B1C00B58000F047FC164B0A221A70AEE000F0CC
:100B2C006FFC1448FFF772FE0346002B05D000F053
:100B3C00F1FC0F4B0B221A70A2E0114B1A68114BEF
:100B4C001B689A4240F09C8000F0B4FB084B0922D1
:100B5C001A7095E000F008FD0648FFF757FE0346B3
:100B6C00002B11D000F006FE014B0D221A7089E00B
:100B7C00BC000020000000202400002048000020C1
:100B8C00880000207C000020444B1A68444B1B68F2
:100B9C009A4277D000F036FD424B0C221A7071E06D
:100BAC0000F05EFD4048FFF731FE0346002B05D0F8
:100BBC0000F0E0FD3B4B0D221A7065E0374B1A68D4
:100BCC00374B1B689A425FD100F0A4FC354B0B22CB
:100BDC001A7059E000F0F8FD3348FFF717FE034692
:100BEC00002B05D000F072F92E4B01221A704DE04B
:100BFC002E4B1A682E4B1B689A4247D000F032FEDF
:100C0C00284B0E221A7041E000F05AFE2648FFF7DE
:100C1C00FDFD0346002B05D000F058F9214B0122B5
:100C2C001A7035E0214B1A68214B1B689A422FD160
:100C3C0000F0A0FD1B4B0D221A7029E000F0D6FE2F
:100C4C001C48FFF7E3FD0346002B23D000F03EF9D0
:100C5C00144B01221A701DE000BF1CE000BF1AE00B
:100C6C0000BF18E000BF16E000BF14E000BF12E0A8
:100C7C0000BF10E000BF0EE000BF0CE000BF0AE0B8
:100C8C0000BF08E000BF06E000BF04E000BF02E0C8
:100C9C0000BF00E000BF00BF80BD00BF8C00002083
:100CAC0080000020BC0000200000002090000020EC
:100CBC00840000202400002080B500AF0022102109
:100CCC000F4801F002FC012220210D4801F0FDFB30
:100CDC00012240210A4801F0F8FB0022802108483B
:100CEC0001F0F3FB01224FF48071054801F0EDFB9C
:100CFC0001224FF40071024801F0E7FB00BF80BDF8
:100D0C00000C014080B500AF012210210F4801F00A
:100D1C00DCFB002220210D4801F0D7FB01224021F1
:100D2C000A4801F0D2FB01228021084801F0CDFBDA
:100D3C0000224FF48071054801F0C7FB01224FF4EB
:100D4C000071024801F0C1FB00BF80BD000C0140E6
:100D5C0080B500AF012210210F4801F0B6FB012233
:100D6C0020210D4801F0B1FB002240210A4801F07E
:100D7C00ACFB01228021084801F0A7FB01224FF4B3
:100D8C008071054801F0A1FB00224FF4007102486C
:100D9C0001F09BFB00BF80BD000C014080B500AF93
:100DAC00002210210F4801F090FB012220210D4858
:100DBC0001F08BFB012240210A4801F086FB012245
:100DCC008021084801F081FB01224FF48071054815
:100DDC0001F07BFB00224FF40071024801F075FB1F
:100DEC0000BF80BD000C014080B500AF0022102177
:100DFC000F4801F06AFB012220210D4801F065FB30
:100E0C00012240210A4801F060FB012280210848A0
:100E1C0001F05BFB00224FF48071054801F055FB9B
:100E2C0001224FF40071024801F04FFB00BF80BD5E
:100E3C00000C014080B500AF012210210F4801F0D9
:100E4C0044FB012220210D4801F03FFB00224021F0
:100E5C000A4801F03AFB00228021084801F035FBDA
:100E6C0001224FF48071054801F02FFB01224FF451
:100E7C000071024801F029FB00BF80BD000C01404D
:100E8C0080B500AF012210210F4801F01EFB00229B
:100E9C0020210D4801F019FB012240210A4801F0E4
:100EAC0014FB00228021084801F00FFB01224FF4B3
:100EBC008071054801F009FB01224FF400710248D2
:100ECC0001F003FB00BF80BD000C014080B500AFFA
:100EDC00144B1B684FF47A7202FB03F31946012082
:100EEC0000F086FE1048FFF7B7FC1048FFF7B4FC83
:100EFC000F48FFF7B1FCFFF723F90A21022000F09D
:100F0C0077FE4FF47A71042000F072FE094B1B68D7
:100F1C00094A1360034B1B68084A1360FFF76AF910
:100F2C0000BF80BD840000200000002024000020B1
:100F3C00480000207C000020D4000020D8000020B5
:100F4C0080B500AFFFF72AFF022000F0A1FE034698
:100F5C00002B05D0FFF726F90A21022000F048FEED
:100F6C00042000F095FE0346002B10D0094B1B68A3
:100F7C00013B084A1360084B1B68013B064A13608F
:100F8C00FFF738F94FF47A71042000F031FE00BFFE
:100F9C0080BD00BFD4000020D800002080B500AF79
:100FAC00134B1B684FF47A7202FB03F319460120B2
:100FBC0000F01EFE0F48FFF74FFC0F48FFF74CFCEC
:100FCC00FFF7BEF80A21022000F012FE4FF47A71EE
:100FDC00042000F00DFE064B1B68084A1360044BFE
:100FEC001B68074A1360FFF705F900BF80BD00BFFF
:100FFC00800000200000002024000020D4000020ED
:10100C00D800002080B500AFFFF7EEFE022000F004
:10101C003FFE0346002B05D0FFF7C4F80A2102203F
:10102C0000F0E6FD042000F033FE0346002B10D048
:10103C00094B1B68013B084A1360084B1B68013BBA
:10104C00064A1360FFF7D6F84FF47A71042000F0CB
:10105C00CFFD00BF80BD00BFD4000020D800002011
:10106C0080B500AF144B1B684FF47A7202FB03F38C
:10107C001946012000F0BCFD1048FFF7EDFB1048AD
:10108C00FFF7EAFB0F48FFF7E7FBFFF759F80A21D8
:10109C00022000F0ADFD4FF47A71042000F0A8FDA1
:1010AC00054B1B68084A1360084B1B68084A136001
:1010BC00FFF7A0F800BF80BD8400002000000020D6
:1010CC002400002048000020D40000207C000020D8
:1010DC00D800002080B500AFFFF7ACFE022000F076
:1010EC00D7FD0346002B05D0FFF75CF80A21022040
:1010FC0000F07EFD042000F0CBFD0346002B10D049
:10110C00094B1B68013B084A1360084B1B68013BE9
:10111C00064A1360FFF76EF84FF47A71042000F062
:10112C0067FD00BF80BD00BFD4000020D8000020A8
:10113C0080B500AF134B1B684FF47A7202FB03F3BC
:10114C001946012000F054FD0F48FFF785FB0F48AE
:10115C00FFF782FBFEF7F4FF0A21022000F048FDA6
:10116C004FF47A71042000F043FD064B1B68084ACB
:10117C001360044B1B68074A1360FFF73BF800BF72
:10118C0080BD00BF80000020000000202400002053
:10119C00D4000020D800002080B500AFFFF770FE0F
:1011AC00022000F075FD0346002B05D0FEF7FAFF78
:1011BC000A21022000F01CFD042000F069FD03460A
:1011CC00002B10D0094B1B68013B084A1360084BDD
:1011DC001B68013B064A1360FFF70CF84FF47A7159
:1011EC00042000F005FD00BF80BD00BFD40000202E
:1011FC00D800002080B500AF0548FFF72DFB05484F
:10120C00FFF72AFB0A21022000F0F2FC00BF80BD90
:10121C00240000204800002080B500AFFEF7A4FF9A
:10122C00FFF7BCFD00BF80BD80B500AF054B1B6850
:10123C004FF47A7202FB03F31946012000F0D8FC3C
:10124C0000BF80BD8000002080B500AFFEF78CFF92
:10125C00FFF7CAFD00BF80BD80B500AF0348FFF7A4
:10126C00FBFA0348FFF7F8FA00BF80BD240000200A
:10127C004800002080B500AFFEF776FFFFF7DAFDDF
:10128C0000BF80BD80B500AF054B1B684FF47A7270
:10129C0002FB03F31946012000F0AAFC00BF80BD3D
:1012AC008000002080B500AFFEF75EFFFFF7E8FD81
:1012BC0000BF80BD80B500AF0E48FFF7CDFA0E4BD6
:1012CC001B680E4A1360FFF7F7FCFA21062000F0AA
:1012DC008FFCFEF735FF094B1B68094A1360094B5D
:1012EC0009221A60FEF786FF0A21022000F080FC1A
:1012FC0000BF80BD000000207C0000208800002082
:10130C00D4000020D800002080B500AF2148FFF7A2
:10131C007DFA0346002B04D01F4B1B6801331E4A79
:10132C0013601C48FFF785FA0346002B04D01A4BB8
:10133C001B680533184A1360174B1B68632B02DDBF
:10134C00154B01221A60144B1B68144A1360FEF7EC
:10135C0051FF062000F09CFC0346002B0BD0102103
:10136C000F4801F0CAF880210D4801F0C6F8FA21A7
:10137C00062000F03DFC022000F08AFC0346002B06
:10138C0005D0FEF70FFF0A21022000F031FC00BF50
:10139C0080BD00BF2400002088000020D400002065
:1013AC00000C014080B500AF1048FFF755FA10480B
:1013BC00FFF752FAFFF780FCFA21062000F018FC28
:1013CC00FEF7BEFE0B4B1B680B4A13600B4B0A223D
:1013DC001A60FEF70FFF0A21022000F009FCFA2127
:1013EC00032000F005FC00BF80BD00BF0000002002
:1013FC004800002088000020D4000020D8000020E5
:10140C0080B500AF3A48FFF701FA0346002B04D031
:10141C00384B1B680133374A13603548FFF709FA1C
:10142C000346002B04D0334B1B680533314A136041
:10143C00304B1B68632B02DD2E4B01221A602E48A9
:10144C00FFF7E4F90346002B10D02A4B1A682B4BFC
:10145C001B689A420ADD274B1B68294A1360284BEC
:10146C001A68264B1B68D31A264A1360214B1B683B
:10147C00254A1360FEF7BEFE062000F009FC034669
:10148C00002B0BD01021214801F037F880211F4888
:10149C0001F033F8FA21062000F0AAFB022000F03C
:1014AC00F7FB0346002B05D0FEF77CFE0A21022039
:1014BC0000F09EFB032000F0EBFB0346002B14D046
:1014CC00134B1B68002B06D1114B01221A60104BD9
:1014DC0001225A6005E00E4B00221A600C4B0022D0
:1014EC005A60FA21032000F083FB00BF80BD00BFCF
:1014FC0024000020880000204800002080000020EC
:10150C007C00002084000020D4000020000C01404E
:10151C00C400002080B500AF0E48FFF79DF90E4BBC
:10152C001B680E4A1360FFF7EDFBFA21062000F052
:10153C005FFBFEF705FE094B1B68094A1360094B5C
:10154C000B221A60FEF756FE0A21022000F050FB17
:10155C0000BF80BD00000020800000208C00002017
:10156C00D4000020D800002080B500AF2148FFF740
:10157C004DF90346002B04D01F4B1B6801331E4A48
:10158C0013601C48FFF755F90346002B04D01A4B87
:10159C001B680533184A1360174B1B68632B02DD5D
:1015AC00154B01221A60144B1B68144A1360FEF78A
:1015BC0021FE062000F06CFB0346002B0CD02021F2
:1015CC000F4800F09AFF4FF480710D4800F095FF22
:1015DC00FA21062000F00CFB022000F059FB034618
:1015EC00002B05D0FEF7DEFD0A21022000F000FBE7
:1015FC0000BF80BD240000208C000020D4000020FF
:10160C00000C014080B500AF1048FFF725F91048D9
:10161C00FFF722F9FFF776FBFA21062000F0E8FA33
:10162C00FEF78EFD0B4B1B680B4A13600B4B0C2209
:10163C001A60FEF7DFFD0A21022000F0D9FAFA2128
:10164C00032000F0D5FA00BF80BD00BF00000020D1
:10165C00480000208C000020D4000020D80000207E
:10166C0080B500AF3A48FFF7D1F80346002B04D001
:10167C00384B1B680133374A13603548FFF7D9F8EC
:10168C000346002B04D0334B1B680533314A1360DF
:10169C00304B1B68632B02DD2E4B01221A602E4847
:1016AC00FFF7B4F80346002B10D02C4B1A68294BCB
:1016BC001B689A420ADD274B1B68294A1360274B8B
:1016CC001A68274B1B68D31A264A1360214B1B68D8
:1016DC00254A1360FEF78EFD062000F0D9FA03466A
:1016EC00002B0CD02021214800F007FF4FF4807113
:1016FC001E4800F002FFFA21062000F079FA0220C1
:10170C0000F0C6FA0346002B05D0FEF74BFD0A216C
:10171C00022000F06DFA032000F0BAFA0346002B09
:10172C0014D0134B1B68002B06D1114B01221A60ED
:10173C000F4B01225A6005E00D4B00221A600C4B36
:10174C0000225A60FA21032000F052FA00BF80BD3B
:10175C00240000208C000020480000207C00002089
:10176C008000002084000020D4000020000C0140E8
:10177C00C400002080B500AF0E48FFF76DF80E4B8B
:10178C001B680E4A1360FFF7E3FAFA21062000F0FB
:10179C002FFAFEF7D5FC094B1B68094A1360094B5D
:1017AC000D221A60FEF726FD0A21022000F020FA15
:1017BC0000BF80BD000000208400002090000020AD
:1017CC00D4000020D800002080B500AF2148FFF7DE
:1017DC001DF80346002B04D01F4B1B6801331E4A17
:1017EC0013601C48FFF725F80346002B04D01A4B56
:1017FC001B680533184A1360174B1B68632B02DDFB
:10180C00154B01221A60144B1B68144A1360FEF727
:10181C00F1FC062000F03CFA0346002B0CD04021D2
:10182C000F4800F06AFE4FF400710D4800F065FEA1
:10183C00FA21062000F0DCF9022000F029FA034618
:10184C00002B05D0FEF7AEFC0A21022000F0D0F9E7
:10185C0000BF80BD2400002090000020D400002098
:10186C00000C014080B500AF1048FEF7F5FF1048A2
:10187C00FEF7F2FFFFF76CFAFA21062000F0B8F938
:10188C00FEF75EFC0B4B1B680B4A13600B4B0E22D6
:10189C001A60FEF7AFFC0A21022000F0A9F9FA2128
:1018AC00032000F0A5F900BF80BD00BF00000020A0
:1018BC004800002090000020D4000020D800002018
:1018CC0080B500AF3748FEF7A1FF0346002B04D0CC
:1018DC00354B1B680133344A13603248FEF7A9FFBD
:1018EC000346002B04D0304B1B6805332E4A136083
:1018FC002D4B1B68632B02DD2B4B01221A602B48EE
:10190C00FEF784FF0346002B0AD0274B1B68284A9E
:10191C001360274B1A68274B1B681344264A136025
:10192C00214B1B68254A1360FEF764FC062000F06F
:10193C00AFF90346002B0CD04021214800F0DDFD0F
:10194C004FF400711E4800F0D8FDFA21062000F07B
:10195C004FF9022000F09CF90346002B05D0FEF74E
:10196C0021FC0A21022000F043F9032000F090F939
:10197C000346002B14D0134B1B68002B06D1114BC4
:10198C0001221A600F4B01225A6005E00D4B002218
:10199C001A600C4B00225A60FA21032000F028F93F
:1019AC0000BF80BD240000209000002048000020D3
:1019BC0084000020800000207C000020D400002047
:1019CC00000C0140C400002080B500AF0648FEF7B3
:1019DC0043FFFFF797F9FEF7C7FB4FF4FA710520A9
:1019EC0000F006F900BF80BD2400002080B500AFD8
:1019FC00052000F04DF90346002B0DD0202107489F
:101A0C0000F07BFD4FF48071044800F076FD4FF43C
:101A1C00FA71052000F0ECF800BF80BD000C01400D
:101A2C0080B586B000AF07F1080300221A605A6037
:101A3C009A60DA60224B9B69214A43F0040393615C
:101A4C001F4B9B6903F004037B607B681C4B9B69F9
:101A5C001B4A43F008039361194B9B6903F008037D
:101A6C003B603B68002241F6FF71164800F02DFDEB
:101A7C00002247F2F031144800F027FD41F6FF73C5
:101A8C00BB600123FB6000233B6102237B6107F1F8
:101A9C00080319460B4800F085FB47F2F033BB6096
:101AAC000123FB6000233B6102237B6107F10803E8
:101ABC001946054800F076FB00BF1837BD4680BDBF
:101ACC000010024000080140000C014080B500AF3E
:101ADC0000F0F8F900F040F8FFF7A2FF00F05CF915
:101AEC00184801F051F94FF47A71072000F080F892
:101AFC001421002000F07CF8072000F0C9F8034600
:101B0C00002B09D04FF480510F4800F0F6FC4FF435
:101B1C007A71072000F06CF8002000F0B9F8034649
:101B2C00002B0CD00948FEF721FE0948FEF71EFEDB
:101B3C000848FEF71BFE1421002000F059F8FEF7B0
:101B4C009BFED9E72C01002000080140000000207A
:101B5C00240000204800002080B590B000AF07F1B1
:101B6C00180328220021184601F09AFC3B1D002284
:101B7C001A605A609A60DA601A610223BB61012311
:101B8C00BB621023FB6200237B6307F1180318462A
:101B9C0000F0CCFC0346002B01D000F022F80F2300
:101BAC007B600023BB600023FB6000233B610023B0
:101BBC007B613B1D0021184600F03AFF0346002BC9
:101BCC0001D000F00EF800BF4037BD4680BD80B597
:101BDC0082B000AF786000F02BF800BF0837BD462C
:101BEC0080BD80B400AF72B600BF00BFFDE700003F
:101BFC0080B483B000AF786039603B680A4A82FBDE
:101C0C0003129210DB17D21A08497B6841F8332073
:101C1C00064A7B68DB00134400225A6000BF0C3775
:101C2C00BD4680BC704700BF67666666DC0000205E
:101C3C0080B483B000AF00237B601DE0134A7B6847
:101C4C0052F83330002B14DD104A7B6852F83330D5
:101C5C005A1E0E497B6841F833200C4A7B6852F8B7
:101C6C003330002B05DC094A7B68DB00134401226E
:101C7C005A607B6801337B607B68092BDEDD00BF1B
:101C8C0000BF0C37BD4680BC704700BFDC00002095
:101C9C0080B483B000AF7860074A7B68DB001344E4
:101CAC005B68002B01D0012300E0002318460C37A1
:101CBC00BD4680BC704700BFDC00002080B485B0FE
:101CCC0000AF154B9B69144A43F001039361124B0F
:101CDC009B6903F00103BB60BB680F4BDB690E4AC9
:101CEC0043F08053D3610C4BDB6903F080537B6072
:101CFC007B680A4B5B68FB60FB6823F0E063FB606E
:101D0C00FB6843F08063FB60044AFB68536000BFD0
:101D1C001437BD4680BC70470010024000000140E3
:101D2C0080B400AF00BFFDE780B400AF00BFFDE79B
:101D3C0080B400AF00BFFDE780B400AF00BFFDE78B
:101D4C0080B400AF00BFFDE780B400AF00BFBD465C
:101D5C0080BC704780B400AF00BFBD4680BC7047EC
:101D6C0080B400AF00BFBD4680BC704780B500AFEB
:101D7C0000F0EEF800BF80BD80B500AF024801F066
:101D8C004FF800BF80BD00BF2C01002080B400AF15
:101D9C0000BFBD4680BC704780B586B000AF07F170
:101DAC00080300221A605A609A60DA603B460022EF
:101DBC001A605A601D4B4FF080421A601B4B40F268
:101DCC001F325A60194B00229A60184B6322DA605A
:101DDC00164B00221A61154B00229A61134800F031
:101DEC0083FF0346002B01D0FFF7FBFE4FF480531B
:101DFC00BB6007F1080319460C4801F001F90346D2
:101E0C00002B01D0FFF7EDFE00233B6000237B602D
:101E1C003B461946054801F0D9FA0346002B01D080
:101E2C00FFF7DFFE00BF1837BD4680BD2C01002038
:101E3C0080B584B000AF78607B681B68B3F1804FCD
:101E4C0013D10C4BDB690B4A43F00103D361094BF3
:101E5C00DB6903F00103FB60FB68002200211C20FE
:101E6C0000F069F91C2000F082F900BF1037BD4664
:101E7C0080BD00BF00100240FFF788FF0B480C49E3
:101E8C000C4A002302E0D458C4500433C4188C42CA
:101E9C00F9D3094A094C002301E013600432A24231
:101EAC00FBD301F005FBFFF711FE7047000000208B
:101EBC00A000002048350008A00000207801002078
:101ECC00FEE7000080B500AF084B1B68074A43F0E3
:101EDC0010031360032000F023F90F2000F008F822
:101EEC00FFF7ECFE0023184680BD00BF0020024027
:101EFC0080B582B000AF7860124B1A68124B1B7819
:101F0C0019464FF47A73B3FBF1F3B2FBF3F31846B3
:101F1C0000F03BF90346002B01D001230EE07B6857
:101F2C000F2B0AD8002279684FF0FF3000F003F92C
:101F3C00064A7B681360002300E00123184608372B
:101F4C00BD4680BD940000209C000020980000201D
:101F5C0080B400AF054B1B781A46054B1B68134425
:101F6C00034A136000BFBD4680BC70479C00002034
:101F7C007401002080B400AF024B1B681846BD46AC
:101F8C0080BC70477401002080B485B000AF7860CD
:101F9C007B6803F00703FB600C4BDB68BB60BA6823
:101FAC004FF6FF031340BB60FB681A02BB68134378
:101FBC0043F0BF6343F40033BB60044ABB68D36097
:101FCC0000BF1437BD4680BC704700BF00ED00E079
:101FDC0080B400AF044BDB681B0A03F00703184600
:101FEC00BD4680BC704700BF00ED00E080B483B0FC
:101FFC0000AF0346FB7197F90730002B0BDBFB7925
:10200C0003F01F02064997F907305B09012000FA1B
:10201C0002F241F8232000BF0C37BD4680BC70474C
:10202C0000E100E080B483B000AF03463960FB717F
:10203C0097F90730002B0ADB3B68DAB20C4997F9A9
:10204C0007301201D2B20B4483F800230AE03B683C
:10205C00DAB20849FB7903F00F03043B1201D2B248
:10206C000B441A7600BF0C37BD4680BC704700BFCE
:10207C0000E100E000ED00E080B489B000AFF86052
:10208C00B9607A60FB6803F00703FB61FB69C3F17D
:10209C000703042B28BF0423BB61FB690433062B05
:1020AC0002D9FB69033B00E000237B614FF0FF3258
:1020BC00BB6902FA03F3DA43BB681A407B699A40A6
:1020CC004FF0FF317B6901FA03F3D9437B680B4076
:1020DC00134318462437BD4680BC704780B582B088
:1020EC0000AF78607B68013BB3F1807F01D30123A3
:1020FC000FE00A4A7B68013B53600F214FF0FF3021
:10210C00FFF790FF054B00229A60044B07221A60E0
:10211C00002318460837BD4680BD00BF10E000E024
:10212C0080B582B000AF78607868FFF72DFF00BFF4
:10213C000837BD4680BD80B586B000AF0346B96098
:10214C007A60FB7300237B61FFF742FF78617A684A
:10215C00B9687869FFF790FF024697F90F3011467E
:10216C001846FFF75FFF00BF1837BD4680BD80B52E
:10217C0082B000AF0346FB7197F907301846FFF7A2
:10218C0035FF00BF0837BD4680BD80B582B000AFBB
:10219C0078607868FFF7A2FF034618460837BD46FB
:1021AC0080BD000080B48BB000AF78603960002334
:1021BC007B6200233B6261E101227B6A02FA03F33A
:1021CC00FB613B681B68FA691340BB61BA69FB6928
:1021DC009A4240F050813B685B68974A93425ED0CC
:1021EC00954A934275D8954A934258D0934A934254
:1021FC006FD8934A934252D0914A934269D8914AEC
:10220C0093424CD08F4A934263D88F4A934246D024
:10221C008D4A93425DD8122B2AD8122B59D801A281
:10222C0052F823F0AB220008852200089722000800
:10223C00D9220008DF220008DF220008DF22000874
:10224C00DF220008DF220008DF220008DF2200085E
:10225C00DF220008DF220008DF220008DF2200084E
:10226C00DF220008DF2200088D220008A1220008CE
:10227C00764A934213D02CE03B68DB683B6229E042
:10228C003B68DB6804333B6224E03B68DB68083363
:10229C003B621FE03B68DB680C333B621AE03B6837
:1022AC009B68002B02D104233B6213E03B689B68C4
:1022BC00012B05D108233B627B68FA691A6109E09E
:1022CC0008233B627B68FA695A6103E000233B6296
:1022DC0000E000BFBB69FF2B01D87B6801E07B6885
:1022EC0004337B61BB69FF2B02D87B6A9B0002E045
:1022FC007B6A083B9B003B617B691A680F213B6939
:10230C0001FA03F3DB431A40396A3B6901FA03F320
:10231C001A437B691A603B685B6803F08053002B9F
:10232C0000F0A9804A4B9B69494A43F00103936131
:10233C00474B9B6903F00103BB60BB68454A7B6A52
:10234C009B08023352F82330FB607B6A03F00303D3
:10235C009B000F2202FA03F3DB43FA681340FB6085
:10236C007B683D4A93420DD07B683C4A934207D030
:10237C007B683B4A934201D1022304E0032302E031
:10238C00012300E000237A6A02F0030292009340DA
:10239C00FA681343FB602F497B6A9B080233FA6887
:1023AC0041F823203B685B6803F48013002B06D0B4
:1023BC002C4B9A682B49BB6913438B6006E0294B65
:1023CC009A68BB69DB43274913408B603B685B68A9
:1023DC0003F40013002B06D0224BDA682149BB69A9
:1023EC001343CB6006E01F4BDA68BB69DB431D4926
:1023FC001340CB603B685B6803F40033002B06D0C2
:10240C00184B5A681749BB6913434B6006E0154BD0
:10241C005A68BB69DB43134913404B603B685B68EC
:10242C0003F48033002B1FD00E4B1A680D49BB6987
:10243C0013430B601FE000BF00003210000031108E
:10244C0000002210000021100000121000001110DA
:10245C00001002400000014000080140000C014047
:10246C0000100140000401400B4B1A68BB69DB43B0
:10247C00094913400B607B6A01337B623B681A6825
:10248C007B6A22FA03F3002B7FF496AE00BF00BFE9
:10249C002C37BD4680BC70470004014080B485B029
:1024AC0000AF78600B467B807B689A687B88134012
:1024BC00002B02D00123FB7301E00023FB73FB7B99
:1024CC0018461437BD4680BC704780B483B000AF4B
:1024DC0078600B467B8013467B707B78002B03D097
:1024EC007A887B681A6103E07B881A047B681A611E
:1024FC0000BF0C37BD4680BC704780B485B000AFC0
:10250C0078600B467B807B68DB68FB607A88FB68B5
:10251C0013401A04FB68D9437B880B401A437B6831
:10252C001A6100BF1437BD4680BC704780B586B0B9
:10253C0000AF78607B68002B01D1012372E27B68CD
:10254C001B6803F00103002B00F08780924B5B6843
:10255C0003F00C03042B0CD08F4B5B6803F00C03C3
:10256C00082B12D18C4B5B6803F48033B3F5803F9E
:10257C000BD1894B1B6803F40033002B6CD07B68A8
:10258C005B68002B68D101234CE27B685B68B3F578
:10259C00803F06D1804B1B687F4A43F48033136025
:1025AC002EE07B685B68002B0CD17B4B1B687A4A56
:1025BC0023F480331360784B1B68774A23F4802311
:1025CC0013601DE07B685B68B3F5A02F0CD1724BD8
:1025DC001B68714A43F4802313606F4B1B686E4A6F
:1025EC0043F4803313600BE06B4B1B686A4A23F493
:1025FC0080331360684B1B68674A23F48023136095
:10260C007B685B68002B13D0FFF7B4FC386108E0E3
:10261C00FFF7B0FC02463B69D31A642B01D90323A4
:10262C0000E25D4B1B6803F40033002BF0D014E088
:10263C00FFF7A0FC386108E0FFF79CFC02463B6901
:10264C00D31A642B01D90323ECE1534B1B6803F41D
:10265C000033002BF0D100E000BF7B681B6803F057
:10266C000203002B63D04C4B5B6803F00C03002B74
:10267C000BD0494B5B6803F00C03082B1CD1464B69
:10268C005B6803F48033002B16D1434B1B6803F0BB
:10269C000203002B05D07B681B69012B01D00123A1
:1026AC00C0E13D4B1B6823F0F8027B685B69DB00E3
:1026BC00394913430B603AE07B681B69002B20D02F
:1026CC00364B01221A60FFF755FC386108E0FFF722
:1026DC0051FC02463B69D31A022B01D90323A1E119
:1026EC002D4B1B6803F00203002BF0D02A4B1B6808
:1026FC0023F0F8027B685B69DB00274913430B600E
:10270C0015E0264B00221A60FFF734FC386108E014
:10271C00FFF730FC02463B69D31A022B01D9032385
:10272C0080E11D4B1B6803F00203002BF0D17B688A
:10273C001B6803F00803002B3AD07B689B69002BC5
:10274C0019D0174B01221A60FFF714FC386108E00E
:10275C00FFF710FC02463B69D31A022B01D9032365
:10276C0060E10D4B5B6A03F00203002BF0D00120FB
:10277C0000F09CFA1CE00A4B00221A60FFF7FAFBEF
:10278C0038610FE0FFF7F6FB02463B69D31A022BC8
:10279C0008D9032346E100BF00100240000042426A
:1027AC0080044242924B5B6A03F00203002BE9D196
:1027BC007B681B6803F00403002B00F0A680002349
:1027CC00FB758B4BDB6903F08053002B0DD1884BD1
:1027DC00DB69874A43F08053D361854BDB6903F097
:1027EC008053BB60BB680123FB75824B1B6803F4F1
:1027FC008073002B18D17F4B1B687E4A43F4807387
:10280C001360FFF7B7FB386108E0FFF7B3FB024634
:10281C003B69D31A642B01D9032303E1754B1B6865
:10282C0003F48073002BF0D07B68DB68012B06D19E
:10283C006F4B1B6A6E4A43F0010313622DE07B68F9
:10284C00DB68002B0CD16A4B1B6A694A23F001032D
:10285C001362674B1B6A664A23F0040313621CE085
:10286C007B68DB68052B0CD1614B1B6A604A43F01B
:10287C00040313625E4B1B6A5D4A43F0010313624F
:10288C000BE05B4B1B6A5A4A23F001031362584B53
:10289C001B6A574A23F0040313627B68DB68002B26
:1028AC0015D0FFF767FB38610AE0FFF763FB0246C0
:1028BC003B69D31A41F28832934201D90323B1E028
:1028CC004B4B1B6A03F00203002BEED014E0FFF716
:1028DC0051FB38610AE0FFF74DFB02463B69D31A06
:1028EC0041F28832934201D903239BE0404B1B6A8F
:1028FC0003F00203002BEED1FB7D012B05D13C4BE9
:10290C00DB693B4A23F08053D3617B68DB69002B86
:10291C0000F08780364B5B6803F00C03082B61D00A
:10292C007B68DB69022B46D1334B00221A60FFF720
:10293C0021FB386108E0FFF71DFB02463B69D31A07
:10294C00022B01D903236DE0294B1B6803F00073A4
:10295C00002BF0D17B681B6AB3F5803F08D1244B68
:10296C005B6823F400327B689B68214913434B60FE
:10297C001F4B5B6823F474127B68196A7B685B6A73
:10298C000B431B4913434B601B4B01221A60FFF78F
:10299C00F1FA386108E0FFF7EDFA02463B69D31A09
:1029AC00022B01D903233DE0114B1B6803F000738C
:1029BC00002BF0D035E0104B00221A60FFF7DAFA4A
:1029CC00386108E0FFF7D6FA02463B69D31A022BAE
:1029DC0001D9032326E0064B1B6803F00073002B80
:1029EC00F0D11EE07B68DB69012B07D1012319E0D4
:1029FC000010024000700040600042420B4B5B68CC
:102A0C00FB60FB6803F480327B681B6A9A4206D138
:102A1C00FB6803F470127B685B6A9A4201D0012355
:102A2C0000E0002318461837BD4680BD0010024058
:102A3C0080B584B000AF786039607B68002B01D121
:102A4C000123D0E06A4B1B6803F007033A689A42F3
:102A5C0010D9674B1B6823F0070265493B68134389
:102A6C000B60634B1B6803F007033A689A4201D072
:102A7C000123B8E07B681B6803F00203002B20D015
:102A8C007B681B6803F00403002B05D0594B5B6873
:102A9C00584A43F4E06353607B681B6803F00803F7
:102AAC00002B05D0534B5B68524A43F46053536080
:102ABC00504B5B6823F0F0027B689B684D491343D5
:102ACC004B607B681B6803F00103002B40D07B68D4
:102ADC005B68012B07D1474B1B6803F40033002BB9
:102AEC0015D101237FE07B685B68022B07D1414B3A
:102AFC001B6803F00073002B09D1012373E03D4BDD
:102B0C001B6803F00203002B01D101236BE0394B4E
:102B1C005B6823F003027B685B68364913434B60A8
:102B2C00FFF728FAF8600AE0FFF724FA0246FB6880
:102B3C00D31A41F28832934201D9032353E02D4B2F
:102B4C005B6803F00C027B685B689B009A42EBD1DC
:102B5C00274B1B6803F007033A689A4210D2244BA8
:102B6C001B6823F0070222493B6813430B60204B80
:102B7C001B6803F007033A689A4201D0012332E044
:102B8C007B681B6803F00403002B08D0194B5B68AF
:102B9C0023F4E0627B68DB68164913434B607B6867
:102BAC001B6803F00803002B09D0124B5B6823F45D
:102BBC0060527B681B69DB000E4913434B6000F0CD
:102BCC0021F802460B4B5B681B0903F00F030A4903
:102BDC00CB5C22FA03F3094A1360094B1B681846B5
:102BEC00FFF786F9002318461037BD4680BD00BF9D
:102BFC0000200240001002401C3500089400002008
:102C0C009800002080B487B000AF0023FB60002345
:102C1C00BB6000237B6100237B6000233B611E4B68
:102C2C005B68FB60FB6803F00C03042B02D0082BE1
:102C3C0003D027E0194B3B6127E0FB689B0C03F0AA
:102C4C000F03174AD35C7B60FB6803F48033002BC3
:102C5C0010D0114B5B685B0C03F00103114AD35C81
:102C6C00BB607B680D4A03FB02F2BB68B2FBF3F35B
:102C7C007B6104E07B680C4A02FB03F37B617B699C
:102C8C003B6102E0054B3B6100BF3B6918461C37BA
:102C9C00BD4680BC704700BF0010024000127A0095
:102CAC002C3500083C35000800093D0080B485B087
:102CBC0000AF78600A4B1B680A4AA2FB03235B0A2D
:102CCC007A6802FB03F3FB6000BFFB685A1EFA60D4
:102CDC00002BF9D100BF00BF1437BD4680BC704734
:102CEC0094000020D34D621080B582B000AF7860A4
:102CFC007B68002B01D1012341E07B6893F83D30C8
:102D0C00DBB2002B06D17B68002283F83C2078686C
:102D1C00FFF78EF87B68022283F83D207B681A68E7
:102D2C007B6804331946104600F056FA7B68012282
:102D3C0083F846207B68012283F83E207B680122C1
:102D4C0083F83F207B68012283F840207B680122B6
:102D5C0083F841207B68012283F842207B680122A2
:102D6C0083F843207B68012283F844207B6801228E
:102D7C0083F845207B68012283F83D200023184608
:102D8C000837BD4680BD000080B485B000AF7860C8
:102D9C007B6893F83D30DBB2012B01D0012335E089
:102DAC007B68022283F83D207B681B68DA687B68AD
:102DBC001B6842F00102DA607B681B68164A93427A
:102DCC0009D07B681B68B3F1804F04D07B681B680B
:102DDC00124A934211D17B681B689B6803F007036E
:102DEC00FB60FB68062B10D07B681B681A687B683D
:102DFC001B6842F001021A6007E07B681B681A68C6
:102E0C007B681B6842F001021A60002318461437D5
:102E1C00BD4680BC704700BF002C01400004004040
:102E2C0080B584B000AF78607B681B68DB68FB60A2
:102E3C007B681B681B69BB60BB6803F00203002B3B
:102E4C0020D0FB6803F00203002B1BD07B681B68AF
:102E5C006FF002021A617B6801221A777B681B688B
:102E6C009B6903F00303002B03D0786800F098F9FA
:102E7C0005E0786800F08BF9786800F09AF97B68C7
:102E8C0000221A77BB6803F00403002B20D0FB68E8
:102E9C0003F00403002B1BD07B681B686FF004024B
:102EAC001A617B6802221A777B681B689B6903F4A2
:102EBC004073002B03D0786800F072F905E0786855
:102ECC0000F065F9786800F074F97B6800221A77D5
:102EDC00BB6803F00803002B20D0FB6803F0080349
:102EEC00002B1BD07B681B686FF008021A617B6893
:102EFC0004221A777B681B68DB6903F00303002B41
:102F0C0003D0786800F04CF905E0786800F03FF9E0
:102F1C00786800F04EF97B6800221A77BB6803F0E2
:102F2C001003002B20D0FB6803F01003002B1BD0E8
:102F3C007B681B686FF010021A617B6808221A7795
:102F4C007B681B68DB6903F44073002B03D0786843
:102F5C0000F026F905E0786800F019F9786800F0BF
:102F6C0028F97B6800221A77BB6803F00103002B59
:102F7C000CD0FB6803F00103002B07D07B681B68A7
:102F8C006FF001021A617868FEF721FEBB6803F04E
:102F9C008003002B0CD0FB6803F08003002B07D0C0
:102FAC007B681B686FF080021A61786800F06FFA1A
:102FBC00BB6803F04003002B0CD0FB6803F040030C
:102FCC00002B07D07B681B686FF040021A61786891
:102FDC0000F0F8F8BB6803F02003002B0CD0FB6862
:102FEC0003F02003002B07D07B681B686FF02002D6
:102FFC001A61786800F042FA00BF1037BD4680BDF8
:10300C0080B584B000AF786039600023FB737B68B7
:10301C0093F83C30012B01D10223B4E07B680122F0
:10302C0083F83C207B68022283F83D207B681B6878
:10303C009B68BB60BB6823F07703BB60BB6823F461
:10304C007F43BB607B681B68BA689A603B681B68EF
:10305C00B3F5005F3ED0B3F5005F00F28780B3F5A7
:10306C00805F00F08680B3F5805F7FD8702B1AD01C
:10307C00702B7BD8602B50D0602B77D8502B3CD04A
:10308C00502B73D8402B58D0402B6FD8302B64D09A
:10309C00302B6BD8202B60D0202B67D8002B5CD02A
:1030AC00102B5AD062E07B6818683B6899683B68C3
:1030BC005A683B68DB6800F06AF97B681B689B68A0
:1030CC00BB60BB6843F07703BB607B681B68BA6866
:1030DC009A604FE07B6818683B6899683B685A684F
:1030EC003B68DB6800F053F97B681B689A687B6867
:1030FC001B6842F480429A603CE07B6818683B682D
:10310C0059683B68DB681A4600F0CAF87B681B6894
:10311C005021184600F021F92CE07B6818683B68B8
:10312C0059683B68DB681A4600F0E8F87B681B6856
:10313C006021184600F011F91CE07B6818683B68A8
:10314C0059683B68DB681A4600F0AAF87B681B6874
:10315C004021184600F001F90CE07B681A683B68C6
:10316C001B681946104600F0F8F803E00123FB73C6
:10317C0000E000BF7B68012283F83D207B680022C1
:10318C0083F83C20FB7B18461037BD4680BD80B4CD
:10319C0083B000AF786000BF0C37BD4680BC704771
:1031AC0080B483B000AF786000BF0C37BD4680BCE4
:1031BC00704780B483B000AF786000BF0C37BD4659
:1031CC0080BC704780B483B000AF786000BF0C3710
:1031DC00BD4680BC7047000080B485B000AF7860FD
:1031EC0039607B681B68FB607B682B4A934207D075
:1031FC007B68B3F1804F03D07B68284A934208D197
:10320C00FB6823F07003FB603B685B68FA68134350
:10321C00FB607B68204A934207D07B68B3F1804FF8
:10322C0003D07B681D4A934208D1FB6823F440739A
:10323C00FB603B68DB68FA681343FB60FB6823F0B8
:10324C0080023B685B691343FB607B68FA681A6019
:10325C003B689A687B68DA623B681A687B689A629A
:10326C007B680D4A934203D13B681A697B681A63E9
:10327C007B6801225A617B681B6903F00103002BF8
:10328C0005D07B681B6923F001027B681A6100BFC3
:10329C001437BD4680BC7047002C01400004004030
:1032AC0080B487B000AFF860B9607A60FB681B6AC5
:1032BC007B61FB681B6A23F00102FB681A62FB68E6
:1032CC009B693B613B6923F0F0033B617B681B010D
:1032DC003A6913433B617B6923F00A037B617A698A
:1032EC00BB6813437B61FB683A699A61FB687A6936
:1032FC001A6200BF1C37BD4680BC704780B487B0D3
:10330C0000AFF860B9607A60FB681B6A7B61FB6890
:10331C001B6A23F01002FB681A62FB689B693B6115
:10332C003B6923F470433B617B681B033A6913438D
:10333C003B617B6923F0A0037B61BB681B017A694D
:10334C0013437B61FB683A699A61FB687A691A627C
:10335C0000BF1C37BD4680BC704780B485B000AF41
:10336C00786039607B689B68FB60FB6823F07003B6
:10337C00FB603A68FB68134343F00703FB607B6810
:10338C00FA689A6000BF1437BD4680BC704780B4A1
:10339C0087B000AFF860B9607A603B60FB689B68EF
:1033AC007B617B6923F47F437B613B681A027B68FA
:1033BC001A43BB6813437A6913437B61FB687A69D0
:1033CC009A6000BF1C37BD4680BC704780B485B086
:1033DC0000AF786039607B6893F83C30012B01D1E9
:1033EC00022341E07B68012283F83C207B680222A7
:1033FC0083F83D207B681B685B68FB607B681B68FF
:10340C009B68BB60FB6823F07003FB603B681B6828
:10341C00FA681343FB607B681B68FA685A607B6828
:10342C001B68144A934209D07B681B68B3F1804F28
:10343C0004D07B681B68104A93420CD1BB6823F004
:10344C008003BB603B685B68BA681343BB607B68F6
:10345C001B68BA689A607B68012283F83D207B6800
:10346C00002283F83C20002318461437BD4680BC4C
:10347C00704700BF002C01400004004080B483B0B2
:10348C0000AF786000BF0C37BD4680BC704780B47D
:10349C0083B000AF786000BF0C37BD4680BC70476E
:1034AC0003460244934200D1704703F8011BF9E72D
:1034BC0070B500260C4D0D4C641BA410A64209D10E
:1034CC0000F01AF800260A4D0A4C641BA410A64200
:1034DC0005D170BD55F8043B98470136EEE755F819
:1034EC00043B98470136F2E74035000840350008A8
:1034FC004035000844350008F8B500BFF8BC08BCDE
:10350C009E467047F8B500BFF8BC08BC9E46704795
:10351C000000000000000000010203040607080977
:10352C0002030405060708090A0B0C0D0E0F1010F8
:04353C000102000088
:04354000310100084D
:043544000D0100086D
:10354800010000000100000001000000010000006F
:10355800F40100000000000000000000000C014021
:103568000010000001000000010000000100000040
:1035780001000000F401000000000000000000004D
:10358800000C0140002000000100000001000000C4
:103598000100000001000000F4010000000000002C
:1035A80000000000000C0140004000000100000085
:1035B8000800000001000000020000000F000000E9
:1035C800030000000C0000000500000002000000DD
:1035D8000300000000127A00100000000100000043
:0400000508001E854C
:00000001FF
