:020000040800F2
:1000000000280020A91700085116000859160008FA
:10001000611600086916000871160008000000004B
:100020000000000000000000000000007916000839
:100030008516000800000000911600089D160008B3
:10004000F1170008F1170008F1170008F117000870
:10005000F1170008F1170008F1170008F117000860
:10006000F1170008F1170008F1170008F117000850
:10007000F1170008F1170008F1170008F117000840
:10008000F1170008F1170008F1170008F117000830
:10009000F1170008F1170008F1170008F117000820
:1000A000F1170008F1170008F1170008F117000810
:1000B000A9160008F117000800000000F117000859
:1000C000F11700080000000000000000F117000810
:1000D00000000000F1170008F11700080000000000
:1000E000F1170008F1170008F117000800000000E0
:1000F0000000000000000000000000000000000000
:0C01000000000000000000005FF808F1A3
:10010C0010B5054C237833B9044B13B10448AFF345
:10011C0000800123237010BDA0000020000000000F
:10012C00282E000808B5034B1BB103490348AFF355
:10013C00008008BD00000000A4000020282E00084C
:10014C0080B400AF074B00221A60064B00225A60A5
:10015C00044B00229A60034B0022DA6000BFBD46BC
:10016C0080BC7047C400002080B500AF00224FF463
:10017C0080710B4801F03BFE00224FF400710848DF
:10018C0001F035FE00224FF48061054801F02FFE8E
:10019C0000224FF40061024801F029FE00BF80BD2F
:1001AC000008014080B500AF0F4B1B680F4A52F896
:1001BC002330002B0AD10C4B1A680B4B1B680C49D3
:1001CC0051F823301946104600F054F8064B1B68C2
:1001DC000133054A1360044B1B68032B02DD024BF1
:1001EC0000221A6000BF80BDC0000020C4000020A7
:1001FC006C00002080B400AF1A4B1B681A4A82FBBB
:10020C0003129210DB17D31A184A1360154B196896
:10021C00154B83FB01239A10CB17D21A13469B0064
:10022C0013445B00CA1A114B5A60114B1B680E4ADF
:10023C0082FB03129210DB17D31A0C4A93600C4BFF
:10024C001968094B83FB01239A10CB17D21A13465A
:10025C009B0013445B00CA1A044BDA6000BFBD4616
:10026C0080BC7047D4000020676666666C00002076
:10027C00D800002080B582B000AF78603960FFF7FD
:10028C0073FF386800F008F8786800F0F1F900BFE7
:10029C000837BD4680BD000080B582B000AF7860E5
:1002AC007B68092B00F2B48101A252F823F000BF45
:1002BC00E50200083703000889030008DB03000887
:1002CC002D0400087F040008D10400082305000851
:1002DC0075050008C705000800220121CB4801F074
:1002EC0086FD00220221C94801F081FD0022042173
:1002FC00C64801F07CFD00220821C44801F077FDBE
:10030C0000221021C14801F072FD00222021BF48BB
:10031C0001F06DFD01224021BC4801F068FD012275
:10032C008021BA4801F063FD9BE101220121B7480D
:10033C0001F05DFD00220221B44801F058FD0022BD
:10034C000421B24801F053FD01220821AF4801F00D
:10035C004EFD01221021AD4801F049FD0122202162
:10036C00AA4801F044FD01224021A84801F03FFDBC
:10037C0001228021A54801F03AFD72E10022012101
:10038C00A24801F034FD00220221A04801F02FFD0B
:10039C00012204219D4801F02AFD002208219B48DE
:1003AC0001F025FD00221021984801F020FD0122CA
:1003BC002021964801F01BFD00224021934801F0BA
:1003CC0016FD01228021914801F011FD49E1002226
:1003DC0001218E4801F00BFD002202218B4801F017
:1003EC0006FD00220421894801F001FD00220821AC
:1003FC00864801F0FCFC01221021844801F0F7FC36
:10040C0001222021814801F0F2FC002240217F488A
:10041C0001F0EDFC012280217C4801F0E8FC20E198
:10042C0001220121794801F0E2FC002202217748E7
:10043C0001F0DDFC00220421744801F0D8FC0122FB
:10044C000821724801F0D3FC012210216F4801F001
:10045C00CEFC002220216D4801F0C9FC0022402175
:10046C006A4801F0C4FC01228021684801F0BFFCFD
:10047C00F7E000220121654801F0B9FC01220221BC
:10048C00624801F0B4FC00220421604801F0AFFC8A
:10049C00002208215D4801F0AAFC012210215B48D2
:1004AC0001F0A5FC00222021584801F0A0FC0022FC
:1004BC004021564801F09BFC01228021534801F059
:1004CC0096FCCEE000220121504801F090FC012264
:1004DC0002214E4801F08BFC002204214B4801F014
:1004EC0086FC00220821494801F081FC00221021E1
:1004FC00464801F07CFC00222021444801F077FCA6
:10050C0000224021414801F072FC012280213F4829
:10051C0001F06DFCA5E0002201213C4801F067FCD4
:10052C0000220221394801F062FC002204213748E4
:10053C0001F05DFC01220821344801F058FC012235
:10054C001021324801F053FC012220212F4801F0E8
:10055C004EFC012240212D4801F049FC0122802152
:10056C002A4801F044FC7CE000220121274801F0DC
:10057C003EFC00220221254801F039FC0022042116
:10058C00224801F034FC00220821204801F02FFC05
:10059C00002210211D4801F02AFC002220211B48BA
:1005AC0001F025FC00224021184801F020FC01221A
:1005BC008021164801F01BFC53E000220121134856
:1005CC0001F015FC00220221104801F010FC002261
:1005DC0004210E4801F00BFC002208210B4801F00D
:1005EC0006FC01221021094801F001FC0022202107
:1005FC00064801F0FCFB00224021044801F0F7FB07
:10060C0001228021014801F0F2FB2AE000080140A0
:10061C0001220121154801F0EAFB012202211348B5
:10062C0001F0E5FB01220421104801F0E0FB01225E
:10063C0008210E4801F0DBFB012210210B4801F0D0
:10064C00D6FB01222021094801F0D1FB01224021D7
:10065C00064801F0CCFB01228021044801F0C7FBC5
:10066C0000BF00BF0837BD4680BD00BF0008014079
:10067C0080B582B000AF78607B68032B6ED801A286
:10068C0052F823F0A1060008D3060008050700085D
:10069C003707000801224FF48071334801F0A7FBA3
:1006AC0000224FF40071304801F0A1FB00224FF4FE
:1006BC0080612D4801F09BFB00224FF400612A4819
:1006CC0001F095FB4BE000224FF48071264801F0BD
:1006DC008EFB01224FF40071234801F088FB0022AD
:1006EC004FF48061204801F082FB00224FF400613E
:1006FC001D4801F07CFB32E000224FF480711A4857
:10070C0001F075FB00224FF40071174801F06FFBEC
:10071C0001224FF48061144801F069FB00224FF470
:10072C000061114801F063FB19E000224FF4807165
:10073C000D4801F05CFB00224FF400710A4801F0F7
:10074C0056FB00224FF48061074801F050FB012258
:10075C004FF40061044801F04AFB00E000BF00BF09
:10076C000837BD4680BD00BF0008014080B582B08F
:10077C0000AF78607B685A687B689A607B681A68FF
:10078C007B685A607B68DA697B681B8C194610465B
:10079C0001F016FB03461A467B681A607B681A68E0
:1007AC007B685B689A422DD17B685A687B689B6832
:1007BC009A4227D17B689A687B68DB689A420ED094
:1007CC007B689A687B68DA607B68DB68002B19D1E0
:1007DC007B6819221A617B6801225A6112E07B68DE
:1007EC001B695A1E7B681A617B681B69002B09D137
:1007FC007B6819221A617B68DB68002B02D17B684D
:10080C0001229A6100BF0837BD4680BD80B483B019
:10081C0000AF78607B685B69012B04D17B68002298
:10082C005A61012300E0002318460C37BD4680BCFA
:10083C00704780B483B000AF78607B689B69012BF4
:10084C0004D17B6800229A61012300E00023184642
:10085C000C37BD4680BC704780B500AF604B1B7831
:10086C00072B00F2AB8001A252F823F09908000884
:10087C00A5080008D90800080D090008410900085E
:10088C007509000891090008AD09000800F0B6F9D7
:10089C00534B01221A70A0E000F0DCF9012000F0AB
:1008AC0089FE0346002B05D000F002FA4C4B0222C5
:1008BC001A7085E04B48FFF7A9FF0346002B7FD049
:1008CC0000F000FB464B05221A7079E000F01AFA92
:1008DC00012000F06FFE0346002B05D000F040FA1B
:1008EC003F4B03221A706DE03E48FFF78FFF034623
:1008FC00002B67D000F0E6FA394B05221A7061E044
:10090C0000F05AFA012000F055FE0346002B05D0EA
:10091C0000F080FA324B04221A7055E03148FFF790
:10092C0075FF0346002B4FD000F0CCFA2C4B052260
:10093C001A7049E000F098FA012000F03BFE0346E3
:10094C00002B05D000F05AF9254B01221A703DE01E
:10095C002448FFF75BFF0346002B37D000F0B2FAB8
:10096C001F4B05221A7031E000F0D2FA1D48FFF738
:10097C004DFF0346002B2BD000F060FB184B0622DA
:10098C001A7025E000F080FB1648FFF73FFF034686
:10099C00002B1FD000F010FC114B07221A7019E02D
:1009AC0000F030FC0F48FFF731FF0346002B13D04B
:1009BC0000F024F90A4B01221A700DE000BF0CE084
:1009CC0000BF0AE000BF08E000BF06E000BF04E083
:1009DC0000BF02E000BF00E000BF00BF80BD00BF51
:1009EC00BC0000200000002080B500AF00221021C8
:1009FC000F4801F0FCF9012220210D4801F0F7F914
:100A0C00012240210A4801F0F2F900228021084815
:100A1C0001F0EDF901224FF48071054801F0E7F97E
:100A2C0001224FF40071024801F0E1F900BF80BDD2
:100A3C00000C014080B500AF012210210F4801F0DD
:100A4C00D6F9002220210D4801F0D1F901224021D4
:100A5C000A4801F0CCF901228021084801F0C7F9BD
:100A6C0000224FF48071054801F0C1F901224FF4C6
:100A7C000071024801F0BBF900BF80BD000C0140C1
:100A8C0080B500AF012210210F4801F0B0F901220E
:100A9C0020210D4801F0ABF9002240210A4801F059
:100AAC00A6F901228021084801F0A1F901224FF496
:100ABC008071054801F09BF900224FF40071024847
:100ACC0001F095F900BF80BD000C014080B500AF6E
:100ADC00002210210F4801F08AF9012220210D4833
:100AEC0001F085F9012240210A4801F080F9012228
:100AFC008021084801F07BF901224FF480710548F0
:100B0C0001F075F900224FF40071024801F06FF901
:100B1C0000BF80BD000C014080B500AF0022102149
:100B2C000F4801F064F9012220210D4801F05FF912
:100B3C00012240210A4801F05AF90122802108487B
:100B4C0001F055F900224FF48071054801F04FF97E
:100B5C0001224FF40071024801F049F900BF80BD39
:100B6C00000C014080B500AF012210210F4801F0AC
:100B7C003EF9012220210D4801F039F900224021D3
:100B8C000A4801F034F900228021084801F02FF9BD
:100B9C0001224FF48071054801F029F901224FF42C
:100BAC000071024801F023F900BF80BD000C014028
:100BBC0080B500AF012210210F4801F018F9002276
:100BCC0020210D4801F013F9012240210A4801F0BF
:100BDC000EF900228021084801F009F901224FF496
:100BEC008071054801F003F901224FF400710248AD
:100BFC0001F0FDF800BF80BD000C014080B500AFD6
:100C0C00104B1B684FF47A7202FB03F31946012058
:100C1C0000F080FCFFF794FA0A21022000F07AFC25
:100C2C004FF47A71042000F075FC074B1B68074ADF
:100C3C001360044B1B68064A1360FFF7DBFA00BF16
:100C4C0080BD00BF840000207C000020D400002068
:100C5C00D800002080B500AFFFF738FF022000F06D
:100C6C00A9FC0346002B05D0FFF79CFA0A210220B1
:100C7C0000F050FC042000F09DFC0346002B10D02B
:100C8C00094B1B68013B084A1360084B1B68013B6E
:100C9C00064A1360FFF7AEFA4FF47A71042000F0A5
:100CAC0039FC00BF80BD00BFD4000020D80000205C
:100CBC0080B500AF104B1B684FF47A7202FB03F344
:100CCC001946012000F026FCFFF73AFA0A2102200F
:100CDC0000F020FC4FF47A71042000F01BFC064B52
:100CEC001B68064A1360044B1B68054A1360FFF728
:100CFC0081FA00BF80BD00BF80000020D40000201E
:100D0C00D800002080B500AFFFF706FF022000F0EE
:100D1C0051FC0346002B05D0FFF744FA0A210220B0
:100D2C0000F0F8FB042000F045FC0346002B10D02B
:100D3C00094B1B68013B084A1360084B1B68013BBD
:100D4C00064A1360FFF756FA4FF47A71042000F04C
:100D5C00E1FB00BF80BD00BFD4000020D800002004
:100D6C0080B500AF104B1B684FF47A7202FB03F393
:100D7C001946012000F0CEFBFFF7E2F90A21022010
:100D8C0000F0C8FB4FF47A71042000F0C3FB064B53
:100D9C001B68064A1360064B1B68064A1360FFF774
:100DAC0029FA00BF80BD00BF84000020D4000020C1
:100DBC007C000020D800002080B500AFFFF7D2FEE9
:100DCC00022000F0F7FB0346002B05D0FFF7EAF9F1
:100DDC000A21022000F09EFB042000F0EBFB0346EE
:100DEC00002B10D0094B1B68013B084A1360084BC1
:100DFC001B68013B064A1360FFF7FCF94FF47A714C
:100E0C00042000F087FB00BF80BD00BFD400002091
:100E1C00D800002080B500AF104B1B684FF47A72DD
:100E2C0002FB03F31946012000F074FBFFF788F96D
:100E3C000A21022000F06EFB4FF47A71042000F0BE
:100E4C0069FB064B1B68064A1360044B1B68054A7A
:100E5C001360FFF7CFF900BF80BD00BF80000020FA
:100E6C00D4000020D800002080B500AFFFF7A0FE12
:100E7C00022000F09FFB0346002B05D0FFF792F9F0
:100E8C000A21022000F046FB042000F093FB0346ED
:100E9C00002B10D0094B1B68013B084A1360084B10
:100EAC001B68013B064A1360FFF7A4F94FF47A71F3
:100EBC00042000F02FFB00BF80BD00BFD400002039
:100ECC00D800002080B500AF0D4B1B680D4A136095
:100EDC00FFF78AFDFA21062000F01CFBFFF730F922
:100EEC00084B1B68084A1360084B02221A60FFF774
:100EFC0081F90A21022000F00DFB00BF80BD00BF6C
:100F0C007C00002088000020D4000020D8000020A5
:100F1C0080B500AF4048FFF779FC0346002B04D0A6
:100F2C003E4B1B6801333D4A13603B48FFF781FC85
:100F3C000346002B04D0394B1B680533374A13602A
:100F4C00364B1B68632B02DD344B01221A6034488C
:100F5C00FFF75CFC0346002B10D0304B1A68314B6A
:100F6C001B689A420ADD2D4B1B682F4A13602E4BCF
:100F7C001A682C4B1B68D31A2C4A1360274B1B681E
:100F8C002B4A1360FFF736F9062000F013FB0346DB
:100F9C00002B0BD01021274800F041FF8021254861
:100FAC0000F03DFFFA21062000F0B4FA022000F018
:100FBC0001FB0346002B05D0FFF7F4F80A210220B1
:100FCC0000F0A8FA032000F0F5FA0346002B21D01C
:100FDC00124B1A68144B1B689A4211D0164B1B68A3
:100FEC00002B06D1144B01221A60134B01225A60BC
:100FFC000CE0114B00221A600F4B00225A6005E0E6
:10100C000D4B00221A600C4B00225A60FA2103206F
:10101C0000F080FA00BF80BD240000208800002072
:10102C0048000020800000207C000020840000206C
:10103C00D4000020000C0140C400002080B500AF9B
:10104C000D4B1B680D4A1360FFF7F4FCFA210620C8
:10105C0000F060FAFFF774F8084B1B68084A13603D
:10106C00084B03221A60FFF7C5F80A21022000F092
:10107C0051FA00BF80BD00BF800000208C00002012
:10108C00D4000020D800002080B500AF4148FFF705
:10109C00BDFB0346002B04D03F4B1B6801333E4A7B
:1010AC0013603C48FFF7C5FB0346002B04D03A4BBA
:1010BC001B680533384A1360374B1B68632B02DD02
:1010CC00354B01221A603548FFF7A0FB0346002B75
:1010DC0010D0334B1A68304B1B689A420ADD2E4BEA
:1010EC001B68304A13602E4B1A682E4B1B68D31AA0
:1010FC002D4A1360284B1B682C4A1360FFF77AF8B3
:10110C00062000F057FA0346002B0CD0202128486B
:10111C0000F085FE4FF48071254800F080FEFA2126
:10112C00062000F0F7F9022000F044FA0346002BE9
:10113C0005D0FFF737F80A21022000F0EBF9032065
:10114C0000F038FA0346002B21D0134B1A68154BCC
:10115C001B689A4211D0174B1B68002B06D1154BFC
:10116C0001221A60134B01225A600CE0114B002231
:10117C001A60104B00225A6005E00E4B00221A60D8
:10118C000C4B00225A60FA21032000F0C3F900BF77
:10119C0080BD00BF240000208C00002048000020EF
:1011AC007C0000208000002084000020D40000205F
:1011BC00000C0140C400002080B500AF0D4B1B6833
:1011CC000D4A1360FFF75CFCFA21062000F0A2F92F
:1011DC00FEF7B6FF084B1B68084A1360084B042245
:1011EC001A60FFF707F80A21022000F093F900BFFC
:1011FC0080BD00BF8400002090000020D40000209F
:10120C00D800002080B500AF3E48FFF7FFFA034638
:10121C00002B04D03C4B1B6801333B4A136039480C
:10122C00FFF707FB0346002B04D0374B1B68053335
:10123C00354A1360344B1B68632B02DD324B0122A1
:10124C001A603248FFF7E2FA0346002B0AD02E4B05
:10125C001B682F4A13602E4B1A682E4B1B681344C5
:10126C002D4A1360284B1B682C4A1360FEF7C2FFF3
:10127C00062000F09FF90346002B0CD04021284893
:10128C0000F0CDFD4FF40071254800F0C8FDFA21A7
:10129C00062000F03FF9022000F08CF90346002BE9
:1012AC0005D0FEF77FFF0A21022000F033F903205E
:1012BC0000F080F90346002B21D0134B1A68144B15
:1012CC001B689A4211D0174B1B68002B06D1154B8B
:1012DC0001221A60134B01225A600CE0114B0022C0
:1012EC001A60104B00225A6005E00E4B00221A6067
:1012FC000C4B00225A60FA21032000F00BF900BFBE
:10130C0080BD00BF24000020900000204800002079
:10131C0084000020800000207C000020D4000020ED
:10132C00000C0140C400002080B586B000AF07F16E
:10133C00080300221A605A609A60DA60294B9B6994
:10134C00284A43F004039361264B9B6903F0040382
:10135C007B607B68234B9B69224A43F008039361B3
:10136C00204B9B6903F008033B603B68002241F66D
:10137C00FF711D4800F03BFD00224FF47C711B48AF
:10138C0000F035FD41F6FF73BB600123FB600023C9
:10139C003B6102237B6107F108031946124800F0F8
:1013AC0093FB4FF4E043BB600023FB6000233B61E5
:1013BC0007F1080319460D4800F086FB4FF47C73C7
:1013CC00BB600123FB6000233B6102237B6107F1BF
:1013DC0008031946054800F077FB00BF1837BD46D7
:1013EC0080BD00BF0010024000080140000C01400D
:1013FC0080B500AF00F0F8F900F040F8FFF794FF6B
:10140C0000F05CF9184801F051F94FF47A7107209B
:10141C0000F080F81421002000F07CF8072000F088
:10142C00C9F80346002B09D04FF480510F4800F047
:10143C00F6FC4FF47A71072000F06CF8002000F0F5
:10144C00B9F80346002B0CD00948FFF78FF909486F
:10145C00FFF78CF90848FFF789F91421002000F0F8
:10146C0059F8FFF7F9F9D9E72C01002000080140E1
:10147C0000000020240000204800002080B590B01F
:10148C0000AF07F1180328220021184601F09AFC3E
:10149C003B1D00221A605A609A60DA601A610223BE
:1014AC00BB610123BB621023FB6200237B6307F14A
:1014BC001803184600F0CCFC0346002B01D000F0BA
:1014CC0022F80F237B600023BB600023FB6000230A
:1014DC003B6100237B613B1D0021184600F03AFF65
:1014EC000346002B01D000F00EF800BF4037BD467C
:1014FC0080BD80B582B000AF786000F02BF800BFE3
:10150C000837BD4680BD80B400AF72B600BF00BFC7
:10151C00FDE7000080B483B000AF786039603B68B1
:10152C000A4A82FB03129210DB17D21A08497B6815
:10153C0041F83320064A7B68DB00134400225A60D2
:10154C0000BF0C37BD4680BC704700BF676666663F
:10155C00DC00002080B483B000AF00237B601DE072
:10156C00134A7B6852F83330002B14DD104A7B6829
:10157C0052F833305A1E0E497B6841F833200C4A1E
:10158C007B6852F83330002B05DC094A7B68DB00A2
:10159C00134401225A607B6801337B607B68092B02
:1015AC00DEDD00BF00BF0C37BD4680BC704700BFFE
:1015BC00DC00002080B483B000AF7860074A7B6801
:1015CC00DB0013445B68002B01D0012300E00023F7
:1015DC0018460C37BD4680BC704700BFDC000020AD
:1015EC0080B485B000AF154B9B69144A43F00103DE
:1015FC009361124B9B6903F00103BB60BB680F4BFB
:10160C00DB690E4A43F08053D3610C4BDB6903F06A
:10161C0080537B607B680A4B5B68FB60FB6823F044
:10162C00E063FB60FB6843F08063FB60044AFB688B
:10163C00536000BF1437BD4680BC70470010024099
:10164C000000014080B400AF00BFFDE780B400AFE4
:10165C0000BFFDE780B400AF00BFFDE780B400AF72
:10166C0000BFFDE780B400AF00BFFDE780B400AF62
:10167C0000BFBD4680BC704780B400AF00BFBD4604
:10168C0080BC704780B400AF00BFBD4680BC7047C3
:10169C0080B500AF00F0EEF800BF80BD80B500AFA4
:1016AC00024801F04FF800BF80BD00BF2C010020A4
:1016BC0080B400AF00BFBD4680BC704780B586B01B
:1016CC0000AF07F1080300221A605A609A60DA60D2
:1016DC003B4600221A605A601D4B4FF080421A6044
:1016EC001B4B40F21F325A60194B00229A60184B68
:1016FC006322DA60164B00221A61154B00229A61A4
:10170C00134800F083FF0346002B01D0FFF7FBFECC
:10171C004FF48053BB6007F1080319460C4801F0E5
:10172C0001F90346002B01D0FFF7EDFE00233B60CF
:10173C0000237B603B461946054801F0D9FA034665
:10174C00002B01D0FFF7DFFE00BF1837BD4680BD70
:10175C002C01002080B584B000AF78607B681B68DA
:10176C00B3F1804F13D10C4BDB690B4A43F00103EF
:10177C00D361094BDB6903F00103FB60FB680022BA
:10178C0000211C2000F069F91C2000F082F900BF38
:10179C001037BD4680BD00BF00100240FFF788FF28
:1017AC000B480C490C4A002302E0D458C4500433B3
:1017BC00C4188C42F9D3094A094C002301E0136088
:1017CC000432A242FBD301F005FBFFF711FE704778
:1017DC0000000020A00000206C2E0008A0000020BB
:1017EC0078010020FEE7000080B500AF084B1B68B5
:1017FC00074A43F010031360032000F023F90F2075
:10180C0000F008F8FFF7ECFE0023184680BD00BF7F
:10181C000020024080B582B000AF7860124B1A688D
:10182C00124B1B7819464FF47A73B3FBF1F3B2FBEE
:10183C00F3F3184600F03BF90346002B01D00123CB
:10184C000EE07B680F2B0AD8002279684FF0FF302E
:10185C0000F003F9064A7B681360002300E00123C3
:10186C0018460837BD4680BD940000209C0000201F
:10187C009800002080B400AF054B1B781A46054B2E
:10188C001B681344034A136000BFBD4680BC7047FD
:10189C009C0000207401002080B400AF024B1B6838
:1018AC001846BD4680BC70477401002080B485B0DA
:1018BC0000AF78607B6803F00703FB600C4BDB68C0
:1018CC00BB60BA684FF6FF031340BB60FB681A029B
:1018DC00BB68134343F0BF6343F40033BB60044A5B
:1018EC00BB68D36000BF1437BD4680BC704700BFD7
:1018FC0000ED00E080B400AF044BDB681B0A03F082
:10190C0007031846BD4680BC704700BF00ED00E0E1
:10191C0080B483B000AF0346FB7197F90730002BFE
:10192C000BDBFB7903F01F02064997F907305B09C3
:10193C00012000FA02F241F8232000BF0C37BD460B
:10194C0080BC704700E100E080B483B000AF034678
:10195C003960FB7197F90730002B0ADB3B68DAB270
:10196C000C4997F907301201D2B20B4483F80023CB
:10197C000AE03B68DAB20849FB7903F00F03043B39
:10198C001201D2B20B441A7600BF0C37BD4680BC94
:10199C00704700BF00E100E000ED00E080B489B0CA
:1019AC0000AFF860B9607A60FB6803F00703FB6175
:1019BC00FB69C3F10703042B28BF0423BB61FB693C
:1019CC000433062B02D9FB69033B00E000237B6147
:1019DC004FF0FF32BB6902FA03F3DA43BB681A40DB
:1019EC007B699A404FF0FF317B6901FA03F3D943CD
:1019FC007B680B40134318462437BD4680BC7047A8
:101A0C0080B582B000AF78607B68013BB3F1807F1A
:101A1C0001D301230FE00A4A7B68013B53600F217D
:101A2C004FF0FF30FFF790FF054B00229A60044BFC
:101A3C0007221A60002318460837BD4680BD00BF38
:101A4C0010E000E080B582B000AF78607868FFF7F6
:101A5C002DFF00BF0837BD4680BD80B586B000AFF6
:101A6C000346B9607A60FB7300237B61FFF742FF8A
:101A7C0078617A68B9687869FFF790FF024697F940
:101A8C000F3011461846FFF75FFF00BF1837BD46F1
:101A9C0080BD80B582B000AF0346FB7197F907306B
:101AAC001846FFF735FF00BF0837BD4680BD80B52F
:101ABC0082B000AF78607868FFF7A2FF0346184643
:101ACC000837BD4680BD000080B48BB000AF786095
:101ADC00396000237B6200233B6261E101227B6A57
:101AEC0002FA03F3FB613B681B68FA691340BB61A4
:101AFC00BA69FB699A4240F050813B685B68974A2F
:101B0C0093425ED0954A934275D8954A934258D0E9
:101B1C00934A93426FD8934A934252D0914A93423C
:101B2C0069D8914A93424CD08F4A934263D88F4ADA
:101B3C00934246D08D4A93425DD8122B2AD8122B51
:101B4C0059D801A252F823F0CF1B0008A91B00089A
:101B5C00BB1B0008FD1B0008031C0008031C00082D
:101B6C00031C0008031C0008031C0008031C0008CD
:101B7C00031C0008031C0008031C0008031C0008BD
:101B8C00031C0008031C0008031C0008B11B000800
:101B9C00C51B0008764A934213D02CE03B68DB68E7
:101BAC003B6229E03B68DB6804333B6224E03B6822
:101BBC00DB6808333B621FE03B68DB680C333B623D
:101BCC001AE03B689B68002B02D104233B6213E0B4
:101BDC003B689B68012B05D108233B627B68FA6943
:101BEC001A6109E008233B627B68FA695A6103E0D9
:101BFC0000233B6200E000BFBB69FF2B01D87B6870
:101C0C0001E07B6804337B61BB69FF2B02D87B6AE4
:101C1C009B0002E07B6A083B9B003B617B691A6876
:101C2C000F213B6901FA03F3DB431A40396A3B6924
:101C3C0001FA03F31A437B691A603B685B6803F093
:101C4C008053002B00F0A9804A4B9B69494A43F012
:101C5C0001039361474B9B6903F00103BB60BB68B5
:101C6C00454A7B6A9B08023352F82330FB607B6A3F
:101C7C0003F003039B000F2202FA03F3DB43FA6821
:101C8C001340FB607B683D4A93420DD07B683C4A15
:101C9C00934207D07B683B4A934201D1022304E074
:101CAC00032302E0012300E000237A6A02F003021E
:101CBC0092009340FA681343FB602F497B6A9B08A0
:101CCC000233FA6841F823203B685B6803F4801305
:101CDC00002B06D02C4B9A682B49BB6913438B60A5
:101CEC0006E0294B9A68BB69DB43274913408B609C
:101CFC003B685B6803F40013002B06D0224BDA68B8
:101D0C002149BB691343CB6006E01F4BDA68BB6902
:101D1C00DB431D491340CB603B685B6803F4003325
:101D2C00002B06D0184B5A681749BB6913434B60FC
:101D3C0006E0154B5A68BB69DB43134913404B60F3
:101D4C003B685B6803F48033002B1FD00E4B1A6882
:101D5C000D49BB6913430B601FE000BF000032103C
:101D6C0000003110000022100000211000001210A1
:101D7C00000011100010024000000140000801405A
:101D8C00000C014000100140000401400B4B1A688C
:101D9C00BB69DB43094913400B607B6A01337B62EF
:101DAC003B681A687B6A22FA03F3002B7FF496AE29
:101DBC0000BF00BF2C37BD4680BC704700040140FB
:101DCC0080B485B000AF78600B467B807B689A68E6
:101DDC007B881340002B02D00123FB7301E000230E
:101DEC00FB73FB7B18461437BD4680BC704780B430
:101DFC0083B000AF78600B467B8013467B707B789A
:101E0C00002B03D07A887B681A6103E07B881A0464
:101E1C007B681A6100BF0C37BD4680BC704780B42C
:101E2C0085B000AF78600B467B807B68DB68FB601D
:101E3C007A88FB6813401A04FB68D9437B880B40F3
:101E4C001A437B681A6100BF1437BD4680BC7047CB
:101E5C0080B586B000AF78607B68002B01D1012380
:101E6C0072E27B681B6803F00103002B00F0878093
:101E7C00924B5B6803F00C03042B0CD08F4B5B680C
:101E8C0003F00C03082B12D18C4B5B6803F48033EA
:101E9C00B3F5803F0BD1894B1B6803F40033002B47
:101EAC006CD07B685B68002B68D101234CE27B68AB
:101EBC005B68B3F5803F06D1804B1B687F4A43F4C7
:101ECC00803313602EE07B685B68002B0CD17B4B5E
:101EDC001B687A4A23F480331360784B1B68774A6B
:101EEC0023F4802313601DE07B685B68B3F5A02F9F
:101EFC000CD1724B1B68714A43F4802313606F4BF7
:101F0C001B686E4A43F4803313600BE06B4B1B6809
:101F1C006A4A23F480331360684B1B68674A23F4C6
:101F2C00802313607B685B68002B13D0FFF7B4FC35
:101F3C00386108E0FFF7B0FC02463B69D31A642B0A
:101F4C0001D9032300E25D4B1B6803F40033002B23
:101F5C00F0D014E0FFF7A0FC386108E0FFF79CFC20
:101F6C0002463B69D31A642B01D90323ECE1534B92
:101F7C001B6803F40033002BF0D100E000BF7B683A
:101F8C001B6803F00203002B63D04C4B5B6803F01F
:101F9C000C03002B0BD0494B5B6803F00C03082B94
:101FAC001CD1464B5B6803F48033002B16D1434B9A
:101FBC001B6803F00203002B05D07B681B69012B07
:101FCC0001D00123C0E13D4B1B6823F0F8027B6874
:101FDC005B69DB00394913430B603AE07B681B6992
:101FEC00002B20D0364B01221A60FFF755FC3861CC
:101FFC0008E0FFF751FC02463B69D31A022B01D9CA
:10200C000323A1E12D4B1B6803F00203002BF0D03E
:10201C002A4B1B6823F0F8027B685B69DB002749BD
:10202C0013430B6015E0264B00221A60FFF734FCBB
:10203C00386108E0FFF730FC02463B69D31A022BEB
:10204C0001D9032380E11D4B1B6803F00203002B15
:10205C00F0D17B681B6803F00803002B3AD07B6837
:10206C009B69002B19D0174B01221A60FFF714FC47
:10207C00386108E0FFF710FC02463B69D31A022BCB
:10208C0001D9032360E10D4B5B6A03F00203002BC3
:10209C00F0D0012000F09CFA1CE00A4B00221A60E0
:1020AC00FFF7FAFB38610FE0FFF7F6FB02463B69DE
:1020BC00D31A022B08D9032346E100BF00100240BB
:1020CC000000424280044242924B5B6A03F00203DE
:1020DC00002BE9D17B681B6803F00403002B00F094
:1020EC00A6800023FB758B4BDB6903F08053002B20
:1020FC000DD1884BDB69874A43F08053D361854B04
:10210C00DB6903F08053BB60BB680123FB75824B1A
:10211C001B6803F48073002B18D17F4B1B687E4A1D
:10212C0043F480731360FFF7B7FB386108E0FFF7E7
:10213C00B3FB02463B69D31A642B01D9032303E199
:10214C00754B1B6803F48073002BF0D07B68DB6845
:10215C00012B06D16F4B1B6A6E4A43F001031362CD
:10216C002DE07B68DB68002B0CD16A4B1B6A694A3B
:10217C0023F001031362674B1B6A664A23F00403C6
:10218C0013621CE07B68DB68052B0CD1614B1B6A6E
:10219C00604A43F0040313625E4B1B6A5D4A43F0D2
:1021AC00010313620BE05B4B1B6A5A4A23F00103D9
:1021BC001362584B1B6A574A23F0040313627B6863
:1021CC00DB68002B15D0FFF767FB38610AE0FFF7DF
:1021DC0063FB02463B69D31A41F28832934201D920
:1021EC000323B1E04B4B1B6A03F00203002BEED030
:1021FC0014E0FFF751FB38610AE0FFF74DFB024694
:10220C003B69D31A41F28832934201D903239BE0F4
:10221C00404B1B6A03F00203002BEED1FB7D012B1C
:10222C0005D13C4BDB693B4A23F08053D3617B687F
:10223C00DB69002B00F08780364B5B6803F00C03E6
:10224C00082B61D07B68DB69022B46D1334B002213
:10225C001A60FFF721FB386108E0FFF71DFB02460F
:10226C003B69D31A022B01D903236DE0294B1B6860
:10227C0003F00073002BF0D17B681B6AB3F5803F31
:10228C0008D1244B5B6823F400327B689B6821499E
:10229C0013434B601F4B5B6823F474127B68196A01
:1022AC007B685B6A0B431B4913434B601B4B01223E
:1022BC001A60FFF7F1FA386108E0FFF7EDFA024611
:1022CC003B69D31A022B01D903233DE0114B1B6848
:1022DC0003F00073002BF0D035E0104B00221A6095
:1022EC00FFF7DAFA386108E0FFF7D6FA02463B69E5
:1022FC00D31A022B01D9032326E0064B1B6803F0EB
:10230C000073002BF0D11EE07B68DB69012B07D139
:10231C00012319E0001002400070004060004242AE
:10232C000B4B5B68FB60FB6803F480327B681B6AB9
:10233C009A4206D1FB6803F470127B685B6A9A427E
:10234C0001D0012300E0002318461837BD4680BD9C
:10235C000010024080B584B000AF786039607B68B3
:10236C00002B01D10123D0E06A4B1B6803F007035B
:10237C003A689A4210D9674B1B6823F007026549EB
:10238C003B6813430B60634B1B6803F007033A680D
:10239C009A4201D00123B8E07B681B6803F002036A
:1023AC00002B20D07B681B6803F00403002B05D0A6
:1023BC00594B5B68584A43F4E06353607B681B6875
:1023CC0003F00803002B05D0534B5B68524A43F4CF
:1023DC0060535360504B5B6823F0F0027B689B6842
:1023EC004D4913434B607B681B6803F00103002BC2
:1023FC0040D07B685B68012B07D1474B1B6803F40B
:10240C000033002B15D101237FE07B685B68022B26
:10241C0007D1414B1B6803F00073002B09D101233A
:10242C0073E03D4B1B6803F00203002B01D1012329
:10243C006BE0394B5B6823F003027B685B683649C1
:10244C0013434B60FFF728FAF8600AE0FFF724FA11
:10245C000246FB68D31A41F28832934201D9032316
:10246C0053E02D4B5B6803F00C027B685B689B00B0
:10247C009A42EBD1274B1B6803F007033A689A4248
:10248C0010D2244B1B6823F0070222493B681343EC
:10249C000B60204B1B6803F007033A689A4201D08B
:1024AC00012332E07B681B6803F00403002B08D087
:1024BC00194B5B6823F4E0627B68DB6816491343B5
:1024CC004B607B681B6803F00803002B09D0124B90
:1024DC005B6823F460527B681B69DB000E49134375
:1024EC004B6000F021F802460B4B5B681B0903F0B4
:1024FC000F030A49CB5C22FA03F3094A1360094B18
:10250C001B681846FFF786F9002318461037BD469E
:10251C0080BD00BF0020024000100240402E000889
:10252C00940000209800002080B487B000AF0023F6
:10253C00FB600023BB6000237B6100237B600023D6
:10254C003B611E4B5B68FB60FB6803F00C03042BC8
:10255C0002D0082B03D027E0194B3B6127E0FB6826
:10256C009B0C03F00F03174AD35C7B60FB6803F4EE
:10257C008033002B10D0114B5B685B0C03F0010314
:10258C00114AD35CBB607B680D4A03FB02F2BB684B
:10259C00B2FBF3F37B6104E07B680C4A02FB03F3B0
:1025AC007B617B693B6102E0054B3B6100BF3B6992
:1025BC0018461C37BD4680BC704700BF0010024057
:1025CC0000127A00502E0008602E000800093D0011
:1025DC0080B485B000AF78600A4B1B680A4AA2FB36
:1025EC0003235B0A7A6802FB03F3FB6000BFFB6802
:1025FC005A1EFA60002BF9D100BF00BF1437BD463C
:10260C0080BC704794000020D34D621080B582B01E
:10261C0000AF78607B68002B01D1012341E07B681F
:10262C0093F83D30DBB2002B06D17B68002283F897
:10263C003C207868FFF78EF87B68022283F83D20F7
:10264C007B681A687B6804331946104600F056FA0A
:10265C007B68012283F846207B68012283F83E20A8
:10266C007B68012283F83F207B68012283F840209D
:10267C007B68012283F841207B68012283F8422089
:10268C007B68012283F843207B68012283F8442075
:10269C007B68012283F845207B68012283F83D206A
:1026AC00002318460837BD4680BD000080B485B0B5
:1026BC0000AF78607B6893F83D30DBB2012B01D022
:1026CC00012335E07B68022283F83D207B681B6880
:1026DC00DA687B681B6842F00102DA607B681B6871
:1026EC00164A934209D07B681B68B3F1804F04D023
:1026FC007B681B68124A934211D17B681B689B68EC
:10270C0003F00703FB60FB68062B10D07B681B688B
:10271C001A687B681B6842F001021A6007E07B684C
:10272C001B681A687B681B6842F001021A60002360
:10273C0018461437BD4680BC704700BF002C0140C2
:10274C000004004080B584B000AF78607B681B68E3
:10275C00DB68FB607B681B681B69BB60BB6803F0B4
:10276C000203002B20D0FB6803F00203002B1BD0CC
:10277C007B681B686FF002021A617B6801221A7772
:10278C007B681B689B6903F00303002B03D07868FC
:10279C0000F098F905E0786800F08BF9786800F0A3
:1027AC009AF97B6800221A77BB6803F00403002BAC
:1027BC0020D0FB6803F00403002B1BD07B681B6844
:1027CC006FF004021A617B6802221A777B681B681F
:1027DC009B6903F44073002B03D0786800F072F906
:1027EC0005E0786800F065F9786800F074F97B68AA
:1027FC0000221A77BB6803F00803002B20D0FB687B
:10280C0003F00803002B1BD07B681B686FF00802D9
:10281C001A617B6804221A777B681B68DB6903F0FA
:10282C000303002B03D0786800F04CF905E07868BE
:10283C0000F03FF9786800F04EF97B6800221A77B7
:10284C00BB6803F01003002B20D0FB6803F01003CF
:10285C00002B1BD07B681B686FF010021A617B6821
:10286C0008221A777B681B68DB6903F44073002B22
:10287C0003D0786800F026F905E0786800F019F9C3
:10288C00786800F028F97B6800221A77BB6803F09F
:10289C000103002B0CD0FB6803F00103002B07D0C5
:1028AC007B681B686FF001021A617868FEF721FEE5
:1028BC00BB6803F08003002B0CD0FB6803F0800393
:1028CC00002B07D07B681B686FF080021A61786858
:1028DC0000F06FFABB6803F04003002B0CD0FB68D0
:1028EC0003F04003002B07D07B681B686FF040029D
:1028FC001A61786800F0F8F8BB6803F02003002B2D
:10290C000CD0FB6803F02003002B07D07B681B68FE
:10291C006FF020021A61786800F042FA00BF10379D
:10292C00BD4680BD80B584B000AF786039600023AF
:10293C00FB737B6893F83C30012B01D10223B4E08C
:10294C007B68012283F83C207B68022283F83D20BF
:10295C007B681B689B68BB60BB6823F07703BB601C
:10296C00BB6823F47F43BB607B681B68BA689A60C2
:10297C003B681B68B3F5005F3ED0B3F5005F00F217
:10298C008780B3F5805F00F08680B3F5805F7FD8D9
:10299C00702B1AD0702B7BD8602B50D0602B77D833
:1029AC00502B3CD0502B73D8402B58D0402B6FD889
:1029BC00302B64D0302B6BD8202B60D0202B67D8D9
:1029CC00002B5CD0102B5AD062E07B6818683B68F7
:1029DC0099683B685A683B68DB6800F06AF97B6869
:1029EC001B689B68BB60BB6843F07703BB607B686C
:1029FC001B68BA689A604FE07B6818683B689968F6
:102A0C003B685A683B68DB6800F053F97B681B68CD
:102A1C009A687B681B6842F480429A603CE07B6851
:102A2C0018683B6859683B68DB681A4600F0CAF8BE
:102A3C007B681B685021184600F021F92CE07B685C
:102A4C0018683B6859683B68DB681A4600F0E8F880
:102A5C007B681B686021184600F011F91CE07B684C
:102A6C0018683B6859683B68DB681A4600F0AAF89E
:102A7C007B681B684021184600F001F90CE07B686C
:102A8C001A683B681B681946104600F0F8F803E01A
:102A9C000123FB7300E000BF7B68012283F83D201B
:102AAC007B68002283F83C20FB7B18461037BD4620
:102ABC0080BD80B483B000AF786000BF0C37BD46DA
:102ACC0080BC704780B483B000AF786000BF0C3717
:102ADC00BD4680BC704780B483B000AF786000BF47
:102AEC000C37BD4680BC704780B483B000AF7860B3
:102AFC0000BF0C37BD4680BC7047000080B485B069
:102B0C0000AF786039607B681B68FB607B682B4A80
:102B1C00934207D07B68B3F1804F03D07B68284A7F
:102B2C00934208D1FB6823F07003FB603B685B6841
:102B3C00FA681343FB607B68204A934207D07B689A
:102B4C00B3F1804F03D07B681D4A934208D1FB68D8
:102B5C0023F44073FB603B68DB68FA681343FB604B
:102B6C00FB6823F080023B685B691343FB607B6866
:102B7C00FA681A603B689A687B68DA623B681A6884
:102B8C007B689A627B680D4A934203D13B681A6951
:102B9C007B681A637B6801225A617B681B6903F0AE
:102BAC000103002B05D07B681B6923F001027B68B5
:102BBC001A6100BF1437BD4680BC7047002C014021
:102BCC000004004080B487B000AFF860B9607A6050
:102BDC00FB681B6A7B61FB681B6A23F00102FB68C4
:102BEC001A62FB689B693B613B6923F0F0033B6114
:102BFC007B681B013A6913433B617B6923F00A0331
:102C0C007B617A69BB6813437B61FB683A699A61A3
:102C1C00FB687A691A6200BF1C37BD4680BC7047DE
:102C2C0080B487B000AFF860B9607A60FB681B6A4B
:102C3C007B61FB681B6A23F01002FB681A62FB685D
:102C4C009B693B613B6923F470433B617B681B03CD
:102C5C003A6913433B617B6923F0A0037B61BB683A
:102C6C001B017A6913437B61FB683A699A61FB68C3
:102C7C007A691A6200BF1C37BD4680BC704780B4AD
:102C8C0085B000AF786039607B689B68FB60FB683F
:102C9C0023F07003FB603A68FB68134343F00703AF
:102CAC00FB607B68FA689A6000BF1437BD4680BC35
:102CBC00704780B487B000AFF860B9607A603B6051
:102CCC00FB689B687B617B6923F47F437B613B687A
:102CDC001A027B681A43BB6813437A6913437B61FE
:102CEC00FB687A699A6000BF1C37BD4680BC704790
:102CFC0080B485B000AF786039607B6893F83C3065
:102D0C00012B01D1022341E07B68012283F83C2096
:102D1C007B68022283F83D207B681B685B68FB6044
:102D2C007B681B689B68BB60FB6823F07003FB60CF
:102D3C003B681B68FA681343FB607B681B68FA6886
:102D4C005A607B681B68144A934209D07B681B68E5
:102D5C00B3F1804F04D07B681B68104A93420CD1AE
:102D6C00BB6823F08003BB603B685B68BA681343A5
:102D7C00BB607B681B68BA689A607B68012283F829
:102D8C003D207B68002283F83C2000231846143732
:102D9C00BD4680BC704700BF002C014000040040C1
:102DAC0080B483B000AF786000BF0C37BD4680BCE8
:102DBC00704780B483B000AF786000BF0C37BD465D
:102DCC0080BC704703460244934200D1704703F81D
:102DDC00011BF9E770B500260C4D0D4C641BA410BB
:102DEC00A64209D100F01AF800260A4D0A4C641BC1
:102DFC00A410A64205D170BD55F8043B9847013686
:102E0C00EEE755F8043B98470136F2E7642E0008CC
:102E1C00642E0008642E0008682E0008F8B500BF68
:102E2C00F8BC08BC9E467047F8B500BFF8BC08BC9F
:042E3C009E467047F7
:102E4000000000000000000001020304060708095A
:102E500002030405060708090A0B0C0D0E0F1010DB
:042E6000010200006B
:042E64003101000830
:042E68000D01000850
:102E6C000100000001000000010000000100000052
:102E7C00F40100000000000000000000000C014004
:102E8C000010000001000000010000000100000023
:102E9C0001000000F4010000000000000000000030
:102EAC00000C0140002000000100000001000000A7
:102EBC000100000001000000F4010000000000000F
:102ECC0000000000000C0140004000000100000068
:102EDC0008000000010000000200000009000000D2
:102EEC0003000000060000000500000002000000C6
:102EFC000300000000127A00100000000100000026
:04000005080017A92F
:00000001FF
